{
  "contractName": "Exchange",
  "abi": [
    {
      "inputs": [
        {
          "internalType": "address",
          "name": "_Coin",
          "type": "address"
        }
      ],
      "stateMutability": "nonpayable",
      "type": "constructor"
    },
    {
      "anonymous": false,
      "inputs": [
        {
          "indexed": false,
          "internalType": "address",
          "name": "winner",
          "type": "address"
        },
        {
          "indexed": false,
          "internalType": "uint256",
          "name": "highestBid",
          "type": "uint256"
        }
      ],
      "name": "AuctionEnded",
      "type": "event"
    },
    {
      "anonymous": false,
      "inputs": [
        {
          "indexed": false,
          "internalType": "uint256",
          "name": "_tokenId",
          "type": "uint256"
        },
        {
          "indexed": false,
          "internalType": "address",
          "name": "from",
          "type": "address"
        },
        {
          "indexed": false,
          "internalType": "address",
          "name": "to",
          "type": "address"
        }
      ],
      "name": "finishSale",
      "type": "event"
    },
    {
      "anonymous": false,
      "inputs": [
        {
          "indexed": false,
          "internalType": "uint256",
          "name": "_tokenId",
          "type": "uint256"
        }
      ],
      "name": "removeSaled",
      "type": "event"
    },
    {
      "anonymous": false,
      "inputs": [
        {
          "indexed": false,
          "internalType": "uint256",
          "name": "_tokenId",
          "type": "uint256"
        },
        {
          "indexed": false,
          "internalType": "uint256",
          "name": "price",
          "type": "uint256"
        }
      ],
      "name": "setSaled",
      "type": "event"
    },
    {
      "inputs": [
        {
          "internalType": "uint256",
          "name": "_tokenId",
          "type": "uint256"
        }
      ],
      "name": "getSaleIndex",
      "outputs": [
        {
          "internalType": "uint256",
          "name": "",
          "type": "uint256"
        }
      ],
      "stateMutability": "view",
      "type": "function",
      "constant": true
    },
    {
      "inputs": [
        {
          "internalType": "uint256",
          "name": "_tokenId",
          "type": "uint256"
        },
        {
          "internalType": "uint256",
          "name": "_price",
          "type": "uint256"
        }
      ],
      "name": "setSale",
      "outputs": [
        {
          "internalType": "uint256",
          "name": "",
          "type": "uint256"
        }
      ],
      "stateMutability": "nonpayable",
      "type": "function"
    },
    {
      "inputs": [
        {
          "internalType": "uint256",
          "name": "_tokenId",
          "type": "uint256"
        }
      ],
      "name": "removeSale",
      "outputs": [],
      "stateMutability": "nonpayable",
      "type": "function"
    },
    {
      "inputs": [
        {
          "internalType": "uint256",
          "name": "_tokenId",
          "type": "uint256"
        }
      ],
      "name": "paySale",
      "outputs": [],
      "stateMutability": "payable",
      "type": "function",
      "payable": true
    },
    {
      "inputs": [
        {
          "internalType": "uint256",
          "name": "_index",
          "type": "uint256"
        }
      ],
      "name": "getSaleByIndex",
      "outputs": [
        {
          "components": [
            {
              "internalType": "address",
              "name": "addr",
              "type": "address"
            },
            {
              "internalType": "uint256",
              "name": "price",
              "type": "uint256"
            },
            {
              "internalType": "uint256",
              "name": "tokenId",
              "type": "uint256"
            }
          ],
          "internalType": "struct Exchange.Sale",
          "name": "",
          "type": "tuple"
        }
      ],
      "stateMutability": "view",
      "type": "function",
      "constant": true
    },
    {
      "inputs": [
        {
          "internalType": "uint256",
          "name": "_biddingTime",
          "type": "uint256"
        },
        {
          "internalType": "uint256",
          "name": "_revealTime",
          "type": "uint256"
        },
        {
          "internalType": "uint256",
          "name": "_openingBid",
          "type": "uint256"
        },
        {
          "internalType": "address payable",
          "name": "_beneficiary",
          "type": "address"
        },
        {
          "internalType": "uint256",
          "name": "_tokenId",
          "type": "uint256"
        }
      ],
      "name": "setAuction",
      "outputs": [],
      "stateMutability": "nonpayable",
      "type": "function"
    },
    {
      "inputs": [
        {
          "internalType": "bytes32",
          "name": "_blindedBid",
          "type": "bytes32"
        },
        {
          "internalType": "uint256",
          "name": "_tokenId",
          "type": "uint256"
        }
      ],
      "name": "setBid",
      "outputs": [],
      "stateMutability": "payable",
      "type": "function",
      "payable": true
    },
    {
      "inputs": [
        {
          "internalType": "uint256",
          "name": "_values",
          "type": "uint256"
        },
        {
          "internalType": "bool",
          "name": "_fake",
          "type": "bool"
        },
        {
          "internalType": "string",
          "name": "_secret",
          "type": "string"
        },
        {
          "internalType": "uint256",
          "name": "_tokenId",
          "type": "uint256"
        }
      ],
      "name": "reveal",
      "outputs": [],
      "stateMutability": "nonpayable",
      "type": "function"
    },
    {
      "inputs": [
        {
          "internalType": "uint256",
          "name": "_tokenId",
          "type": "uint256"
        }
      ],
      "name": "auctionEnd",
      "outputs": [],
      "stateMutability": "nonpayable",
      "type": "function"
    },
    {
      "inputs": [
        {
          "internalType": "uint256",
          "name": "_index",
          "type": "uint256"
        }
      ],
      "name": "getAuction",
      "outputs": [
        {
          "components": [
            {
              "internalType": "uint256",
              "name": "tokenId",
              "type": "uint256"
            },
            {
              "internalType": "address payable",
              "name": "beneficiary",
              "type": "address"
            },
            {
              "internalType": "uint256",
              "name": "biddingEnd",
              "type": "uint256"
            },
            {
              "internalType": "uint256",
              "name": "revealEnd",
              "type": "uint256"
            },
            {
              "internalType": "uint256",
              "name": "openingBid",
              "type": "uint256"
            },
            {
              "internalType": "bool",
              "name": "ended",
              "type": "bool"
            },
            {
              "internalType": "address",
              "name": "highestBidder",
              "type": "address"
            },
            {
              "internalType": "uint256",
              "name": "highestBid",
              "type": "uint256"
            },
            {
              "components": [
                {
                  "internalType": "address",
                  "name": "customer",
                  "type": "address"
                },
                {
                  "internalType": "uint256",
                  "name": "pendingReturns",
                  "type": "uint256"
                },
                {
                  "internalType": "bytes32",
                  "name": "blindedBid",
                  "type": "bytes32"
                },
                {
                  "internalType": "uint256",
                  "name": "deposit",
                  "type": "uint256"
                }
              ],
              "internalType": "struct Exchange.Bid[]",
              "name": "bids",
              "type": "tuple[]"
            }
          ],
          "internalType": "struct Exchange.Auction",
          "name": "",
          "type": "tuple"
        }
      ],
      "stateMutability": "view",
      "type": "function",
      "constant": true
    },
    {
      "inputs": [
        {
          "internalType": "uint256",
          "name": "value",
          "type": "uint256"
        },
        {
          "internalType": "bool",
          "name": "fake",
          "type": "bool"
        },
        {
          "internalType": "string",
          "name": "secret",
          "type": "string"
        }
      ],
      "name": "getHash",
      "outputs": [
        {
          "internalType": "bytes32",
          "name": "",
          "type": "bytes32"
        }
      ],
      "stateMutability": "pure",
      "type": "function",
      "constant": true
    },
    {
      "inputs": [
        {
          "internalType": "uint256",
          "name": "value",
          "type": "uint256"
        },
        {
          "internalType": "bool",
          "name": "fake",
          "type": "bool"
        },
        {
          "internalType": "string",
          "name": "secret",
          "type": "string"
        }
      ],
      "name": "code",
      "outputs": [
        {
          "internalType": "bytes",
          "name": "",
          "type": "bytes"
        }
      ],
      "stateMutability": "pure",
      "type": "function",
      "constant": true
    },
    {
      "inputs": [
        {
          "internalType": "uint256",
          "name": "value",
          "type": "uint256"
        },
        {
          "internalType": "bool",
          "name": "fake",
          "type": "bool"
        },
        {
          "internalType": "string",
          "name": "secret",
          "type": "string"
        }
      ],
      "name": "codeP",
      "outputs": [
        {
          "internalType": "bytes",
          "name": "",
          "type": "bytes"
        }
      ],
      "stateMutability": "pure",
      "type": "function",
      "constant": true
    },
    {
      "inputs": [
        {
          "internalType": "uint256",
          "name": "_tokenId",
          "type": "uint256"
        }
      ],
      "name": "getIndexOfAuction",
      "outputs": [
        {
          "internalType": "uint256",
          "name": "",
          "type": "uint256"
        }
      ],
      "stateMutability": "view",
      "type": "function",
      "constant": true
    }
  ],
  "bytecode": "0x60806040523480156200001157600080fd5b5060405162003d6138038062003d618339818101604052810190620000379190620000e9565b80600160006101000a81548173ffffffffffffffffffffffffffffffffffffffff021916908373ffffffffffffffffffffffffffffffffffffffff160217905550506200011b565b600080fd5b600073ffffffffffffffffffffffffffffffffffffffff82169050919050565b6000620000b18262000084565b9050919050565b620000c381620000a4565b8114620000cf57600080fd5b50565b600081519050620000e381620000b8565b92915050565b6000602082840312156200010257620001016200007f565b5b60006200011284828501620000d2565b91505092915050565b613c36806200012b6000396000f3fe6080604052600436106100dd5760003560e01c8063932f45da1161007f578063ca88510c11610059578063ca88510c146102e7578063ea54478e14610324578063f901a18f14610340578063fdbf12e21461037d576100dd565b8063932f45da14610230578063a34467771461026d578063bc985c25146102aa576100dd565b8063375df1b7116100bb578063375df1b71461015057806344e797e91461018d57806349f5389a146101b657806378bd7935146101f3576100dd565b80630bbb2779146100e25780630d868d831461010b57806332246e9f14610127575b600080fd5b3480156100ee57600080fd5b506101096004803603810190610104919061313d565b6103a6565b005b610125600480360381019061012091906131f6565b6105f9565b005b34801561013357600080fd5b5061014e60048036038101906101499190613236565b610a0a565b005b34801561015c57600080fd5b5061017760048036038101906101729190613263565b610eb5565b604051610184919061335a565b60405180910390f35b34801561019957600080fd5b506101b460048036038101906101af9190613236565b610ee4565b005b3480156101c257600080fd5b506101dd60048036038101906101d89190613263565b611373565b6040516101ea919061338b565b60405180910390f35b3480156101ff57600080fd5b5061021a60048036038101906102159190613236565b6113a9565b60405161022791906135fe565b60405180910390f35b34801561023c57600080fd5b5061025760048036038101906102529190613236565b6115b2565b604051610264919061362f565b60405180910390f35b34801561027957600080fd5b50610294600480360381019061028f9190613263565b6115cf565b6040516102a1919061335a565b60405180910390f35b3480156102b657600080fd5b506102d160048036038101906102cc9190613236565b6115fe565b6040516102de919061368c565b60405180910390f35b3480156102f357600080fd5b5061030e60048036038101906103099190613236565b6116a4565b60405161031b919061362f565b60405180910390f35b61033e60048036038101906103399190613236565b6116eb565b005b34801561034c57600080fd5b50610367600480360381019061036291906136a7565b611c9b565b604051610374919061362f565b60405180910390f35b34801561038957600080fd5b506103a4600480360381019061039f9190613713565b61213c565b005b60026005600083815260200190815260200160002054815481106103cd576103cc61378e565b5b9060005260206000209060080201600201548042116103eb57600080fd5b60026005600084815260200190815260200160002054815481106104125761041161378e565b5b90600052602060002090600802016003015480421061043057600080fd5b60006005600085815260200190815260200160002054905060006006600083815260200190815260200160002060003373ffffffffffffffffffffffffffffffffffffffff1673ffffffffffffffffffffffffffffffffffffffff1681526020019081526020016000205490506000600283815481106104b3576104b261378e565b5b9060005260206000209060080201905060008160070183815481106104db576104da61378e565b5b906000526020600020906004020190506000806000808d8d8d92509250925082828260405160200161050f9392919061386d565b6040516020818303038152906040528051906020012085600201541461053c5750505050505050506105f1565b84600301548461054c91906138d5565b935081158015610560575082856003015410155b8015610570575082866004015411155b156105955761058033848d6124d8565b15610594578284610591919061392b565b93505b5b6000801b85600201819055503373ffffffffffffffffffffffffffffffffffffffff166108fc859081150290604051600060405180830381858888f193505050501580156105e7573d6000803e3d6000fd5b5050505050505050505b505050505050565b60026005600083815260200190815260200160002054815481106106205761061f61378e565b5b90600052602060002090600802016002015480421061063e57600080fd5b60006005600084815260200190815260200160002054905060006006600083815260200190815260200160002060003373ffffffffffffffffffffffffffffffffffffffff1673ffffffffffffffffffffffffffffffffffffffff1681526020019081526020016000205490506000600283815481106106c1576106c061378e565b5b9060005260206000209060080201905080600401543410156106e257600080fd5b60008160070180549050148061076b57503373ffffffffffffffffffffffffffffffffffffffff168160070183815481106107205761071f61378e565b5b906000526020600020906004020160000160009054906101000a900473ffffffffffffffffffffffffffffffffffffffff1673ffffffffffffffffffffffffffffffffffffffff1614155b15610863576000816007016001816001815401808255809150500390600052602060002090600402019050338160000160006101000a81548173ffffffffffffffffffffffffffffffffffffffff021916908373ffffffffffffffffffffffffffffffffffffffff1602179055506000816001018190555086816002018190555034816003018190555060018260070180549050610809919061392b565b6006600086815260200190815260200160002060003373ffffffffffffffffffffffffffffffffffffffff1673ffffffffffffffffffffffffffffffffffffffff1681526020019081526020016000208190555050610a02565b3373ffffffffffffffffffffffffffffffffffffffff168160070183815481106108905761088f61378e565b5b906000526020600020906004020160000160009054906101000a900473ffffffffffffffffffffffffffffffffffffffff1673ffffffffffffffffffffffffffffffffffffffff1603610a015760008160070183815481106108f5576108f461378e565b5b9060005260206000209060040201600301549050338260070184815481106109205761091f61378e565b5b906000526020600020906004020160000160006101000a81548173ffffffffffffffffffffffffffffffffffffffff021916908373ffffffffffffffffffffffffffffffffffffffff16021790555060008260070184815481106109875761098661378e565b5b906000526020600020906004020160010181905550868260070184815481106109b3576109b261378e565b5b90600052602060002090600402016002018190555034816109d491906138d5565b8260070184815481106109ea576109e961378e565b5b906000526020600020906004020160030181905550505b5b505050505050565b6002600560008381526020019081526020016000205481548110610a3157610a3061378e565b5b906000526020600020906008020160030154804211610a4f57600080fd5b60006005600084815260200190815260200160002054905060028181548110610a7b57610a7a61378e565b5b906000526020600020906008020160010160009054906101000a900473ffffffffffffffffffffffffffffffffffffffff1673ffffffffffffffffffffffffffffffffffffffff163373ffffffffffffffffffffffffffffffffffffffff1614610ae457600080fd5b60028181548110610af857610af761378e565b5b906000526020600020906008020160050160009054906101000a900460ff1615610b2157600080fd5b7fdaec4582d5d9595688c8c98545fdd1c696d41c6aeaeb636737e84ed2f5c00eda60028281548110610b5657610b5561378e565b5b906000526020600020906008020160050160019054906101000a900473ffffffffffffffffffffffffffffffffffffffff1660028381548110610b9c57610b9b61378e565b5b906000526020600020906008020160060154604051610bbc92919061396e565b60405180910390a1610bcd836126a4565b600160028281548110610be357610be261378e565b5b906000526020600020906008020160050160006101000a81548160ff02191690831515021790555060028181548110610c1f57610c1e61378e565b5b906000526020600020906008020160010160009054906101000a900473ffffffffffffffffffffffffffffffffffffffff1673ffffffffffffffffffffffffffffffffffffffff166108fc60028381548110610c7e57610c7d61378e565b5b9060005260206000209060080201600601549081150290604051600060405180830381858888f19350505050158015610cbb573d6000803e3d6000fd5b50600073ffffffffffffffffffffffffffffffffffffffff1660028281548110610ce857610ce761378e565b5b906000526020600020906008020160050160019054906101000a900473ffffffffffffffffffffffffffffffffffffffff1673ffffffffffffffffffffffffffffffffffffffff1614610ea757600160009054906101000a900473ffffffffffffffffffffffffffffffffffffffff1673ffffffffffffffffffffffffffffffffffffffff166342842e0e600160009054906101000a900473ffffffffffffffffffffffffffffffffffffffff1673ffffffffffffffffffffffffffffffffffffffff16636352211e866040518263ffffffff1660e01b8152600401610dce919061362f565b602060405180830381865afa158015610deb573d6000803e3d6000fd5b505050506040513d601f19601f82011682018060405250810190610e0f91906139c3565b60028481548110610e2357610e2261378e565b5b906000526020600020906008020160050160019054906101000a900473ffffffffffffffffffffffffffffffffffffffff16866040518463ffffffff1660e01b8152600401610e74939291906139f0565b600060405180830381600087803b158015610e8e57600080fd5b505af1158015610ea2573d6000803e3d6000fd5b505050505b610eb0836127bf565b505050565b6060838383604051602001610ecc9392919061386d565b60405160208183030381529060405290509392505050565b3073ffffffffffffffffffffffffffffffffffffffff16600160009054906101000a900473ffffffffffffffffffffffffffffffffffffffff1673ffffffffffffffffffffffffffffffffffffffff1663081812fc836040518263ffffffff1660e01b8152600401610f56919061362f565b602060405180830381865afa158015610f73573d6000803e3d6000fd5b505050506040513d601f19601f82011682018060405250810190610f9791906139c3565b73ffffffffffffffffffffffffffffffffffffffff1614806110535750600160009054906101000a900473ffffffffffffffffffffffffffffffffffffffff1673ffffffffffffffffffffffffffffffffffffffff1663e985e9c533306040518363ffffffff1660e01b8152600401611011929190613a27565b602060405180830381865afa15801561102e573d6000803e3d6000fd5b505050506040513d601f19601f820116820180604052508101906110529190613a65565b5b61105c57600080fd5b3373ffffffffffffffffffffffffffffffffffffffff16600160009054906101000a900473ffffffffffffffffffffffffffffffffffffffff1673ffffffffffffffffffffffffffffffffffffffff16636352211e836040518263ffffffff1660e01b81526004016110ce919061362f565b602060405180830381865afa1580156110eb573d6000803e3d6000fd5b505050506040513d601f19601f8201168201806040525081019061110f91906139c3565b73ffffffffffffffffffffffffffffffffffffffff161461112f57600080fd5b60006001600080549050611143919061392b565b90506000611150836116a4565b905080821461129257600080838154811061116e5761116d61378e565b5b90600052602060002090600302016040518060600160405290816000820160009054906101000a900473ffffffffffffffffffffffffffffffffffffffff1673ffffffffffffffffffffffffffffffffffffffff1673ffffffffffffffffffffffffffffffffffffffff16815260200160018201548152602001600282015481525050905080600083815481106112085761120761378e565b5b906000526020600020906003020160008201518160000160006101000a81548173ffffffffffffffffffffffffffffffffffffffff021916908373ffffffffffffffffffffffffffffffffffffffff160217905550602082015181600101556040820151816002015590505081600360008360400151815260200190815260200160002081905550505b600360008481526020019081526020016000206000905560008054806112bb576112ba613a92565b5b6001900381819060005260206000209060030201600080820160006101000a81549073ffffffffffffffffffffffffffffffffffffffff0219169055600182016000905560028201600090555050905560006004600085815260200190815260200160002060006101000a81548160ff0219169083151502179055507faeb5d8537756ae6888df2e41bb9bf6bd74a23b06dd02faf3cb3599670524173383604051611366919061362f565b60405180910390a1505050565b600083838360405160200161138a9392919061386d565b6040516020818303038152906040528051906020012090509392505050565b6113b1612d6d565b600282815481106113c5576113c461378e565b5b906000526020600020906008020160405180610120016040529081600082015481526020016001820160009054906101000a900473ffffffffffffffffffffffffffffffffffffffff1673ffffffffffffffffffffffffffffffffffffffff1673ffffffffffffffffffffffffffffffffffffffff1681526020016002820154815260200160038201548152602001600482015481526020016005820160009054906101000a900460ff161515151581526020016005820160019054906101000a900473ffffffffffffffffffffffffffffffffffffffff1673ffffffffffffffffffffffffffffffffffffffff1673ffffffffffffffffffffffffffffffffffffffff1681526020016006820154815260200160078201805480602002602001604051908101604052809291908181526020016000905b828210156115a357838290600052602060002090600402016040518060800160405290816000820160009054906101000a900473ffffffffffffffffffffffffffffffffffffffff1673ffffffffffffffffffffffffffffffffffffffff1673ffffffffffffffffffffffffffffffffffffffff1681526020016001820154815260200160028201548152602001600382015481525050815260200190600101906114fd565b50505050815250509050919050565b600060056000838152602001908152602001600020549050919050565b60608383836040516020016115e693929190613b1a565b60405160208183030381529060405290509392505050565b611606612de7565b6000828154811061161a5761161961378e565b5b90600052602060002090600302016040518060600160405290816000820160009054906101000a900473ffffffffffffffffffffffffffffffffffffffff1673ffffffffffffffffffffffffffffffffffffffff1673ffffffffffffffffffffffffffffffffffffffff168152602001600182015481526020016002820154815250509050919050565b60006004600083815260200190815260200160002060009054906101000a900460ff166116d057600080fd5b60036000838152602001908152602001600020549050919050565b60003490506000806116fc846116a4565b8154811061170d5761170c61378e565b5b90600052602060002090600302016040518060600160405290816000820160009054906101000a900473ffffffffffffffffffffffffffffffffffffffff1673ffffffffffffffffffffffffffffffffffffffff1673ffffffffffffffffffffffffffffffffffffffff168152602001600182015481526020016002820154815250509050818160200151146117a257600080fd5b6000600160009054906101000a900473ffffffffffffffffffffffffffffffffffffffff1673ffffffffffffffffffffffffffffffffffffffff16636352211e856040518263ffffffff1660e01b81526004016117ff919061362f565b602060405180830381865afa15801561181c573d6000803e3d6000fd5b505050506040513d601f19601f8201168201806040525081019061184091906139c3565b9050600160009054906101000a900473ffffffffffffffffffffffffffffffffffffffff1673ffffffffffffffffffffffffffffffffffffffff166342842e0e600160009054906101000a900473ffffffffffffffffffffffffffffffffffffffff1673ffffffffffffffffffffffffffffffffffffffff16636352211e876040518263ffffffff1660e01b81526004016118db919061362f565b602060405180830381865afa1580156118f8573d6000803e3d6000fd5b505050506040513d601f19601f8201168201806040525081019061191c91906139c3565b33876040518463ffffffff1660e01b815260040161193c939291906139f0565b600060405180830381600087803b15801561195657600080fd5b505af115801561196a573d6000803e3d6000fd5b505050508073ffffffffffffffffffffffffffffffffffffffff166108fc849081150290604051600060405180830381858888f193505050501580156119b4573d6000803e3d6000fd5b50600060016000805490506119c9919061392b565b905060006119d6866116a4565b9050808214611b185760008083815481106119f4576119f361378e565b5b90600052602060002090600302016040518060600160405290816000820160009054906101000a900473ffffffffffffffffffffffffffffffffffffffff1673ffffffffffffffffffffffffffffffffffffffff1673ffffffffffffffffffffffffffffffffffffffff1681526020016001820154815260200160028201548152505090508060008381548110611a8e57611a8d61378e565b5b906000526020600020906003020160008201518160000160006101000a81548173ffffffffffffffffffffffffffffffffffffffff021916908373ffffffffffffffffffffffffffffffffffffffff160217905550602082015181600101556040820151816002015590505081600360008360400151815260200190815260200160002081905550505b60036000878152602001908152602001600020600090556000805480611b4157611b40613a92565b5b6001900381819060005260206000209060030201600080820160006101000a81549073ffffffffffffffffffffffffffffffffffffffff0219169055600182016000905560028201600090555050905560006004600088815260200190815260200160002060006101000a81548160ff0219169083151502179055507fa099d2939f8a21e15162517cac71b56c6e5ed61504232efbb294159c2147b19986600160009054906101000a900473ffffffffffffffffffffffffffffffffffffffff1673ffffffffffffffffffffffffffffffffffffffff16636352211e896040518263ffffffff1660e01b8152600401611c3a919061362f565b602060405180830381865afa158015611c57573d6000803e3d6000fd5b505050506040513d601f19601f82011682018060405250810190611c7b91906139c3565b33604051611c8b93929190613b58565b60405180910390a1505050505050565b60003073ffffffffffffffffffffffffffffffffffffffff16600160009054906101000a900473ffffffffffffffffffffffffffffffffffffffff1673ffffffffffffffffffffffffffffffffffffffff1663081812fc856040518263ffffffff1660e01b8152600401611d0f919061362f565b602060405180830381865afa158015611d2c573d6000803e3d6000fd5b505050506040513d601f19601f82011682018060405250810190611d5091906139c3565b73ffffffffffffffffffffffffffffffffffffffff161480611e0c5750600160009054906101000a900473ffffffffffffffffffffffffffffffffffffffff1673ffffffffffffffffffffffffffffffffffffffff1663e985e9c533306040518363ffffffff1660e01b8152600401611dca929190613a27565b602060405180830381865afa158015611de7573d6000803e3d6000fd5b505050506040513d601f19601f82011682018060405250810190611e0b9190613a65565b5b611e1557600080fd5b3373ffffffffffffffffffffffffffffffffffffffff16600160009054906101000a900473ffffffffffffffffffffffffffffffffffffffff1673ffffffffffffffffffffffffffffffffffffffff16636352211e856040518263ffffffff1660e01b8152600401611e87919061362f565b602060405180830381865afa158015611ea4573d6000803e3d6000fd5b505050506040513d601f19601f82011682018060405250810190611ec891906139c3565b73ffffffffffffffffffffffffffffffffffffffff1614611ee857600080fd5b600015156004600085815260200190815260200160002060009054906101000a900460ff16151514611f1957600080fd5b611f21612de7565b600160009054906101000a900473ffffffffffffffffffffffffffffffffffffffff1673ffffffffffffffffffffffffffffffffffffffff16636352211e856040518263ffffffff1660e01b8152600401611f7c919061362f565b602060405180830381865afa158015611f99573d6000803e3d6000fd5b505050506040513d601f19601f82011682018060405250810190611fbd91906139c3565b816000019073ffffffffffffffffffffffffffffffffffffffff16908173ffffffffffffffffffffffffffffffffffffffff16815250508281602001818152505083816040018181525050600081908060018154018082558091505060019003906000526020600020906003020160009091909190915060008201518160000160006101000a81548173ffffffffffffffffffffffffffffffffffffffff021916908373ffffffffffffffffffffffffffffffffffffffff1602179055506020820151816001015560408201518160020155505060016000805490506120a3919061392b565b600360008681526020019081526020016000208190555060016004600086815260200190815260200160002060006101000a81548160ff0219169083151502179055507fbad0e10a5edcee60c74eeb8ed330673ac386becf89ec348c2882e451bb50d8e38484604051612117929190613b8f565b60405180910390a1600360008581526020019081526020016000205491505092915050565b6000600560008381526020019081526020016000205490503073ffffffffffffffffffffffffffffffffffffffff16600160009054906101000a900473ffffffffffffffffffffffffffffffffffffffff1673ffffffffffffffffffffffffffffffffffffffff1663081812fc846040518263ffffffff1660e01b81526004016121c6919061362f565b602060405180830381865afa1580156121e3573d6000803e3d6000fd5b505050506040513d601f19601f8201168201806040525081019061220791906139c3565b73ffffffffffffffffffffffffffffffffffffffff1614806122c35750600160009054906101000a900473ffffffffffffffffffffffffffffffffffffffff1673ffffffffffffffffffffffffffffffffffffffff1663e985e9c533306040518363ffffffff1660e01b8152600401612281929190613a27565b602060405180830381865afa15801561229e573d6000803e3d6000fd5b505050506040513d601f19601f820116820180604052508101906122c29190613a65565b5b6122cc57600080fd5b3373ffffffffffffffffffffffffffffffffffffffff16600160009054906101000a900473ffffffffffffffffffffffffffffffffffffffff1673ffffffffffffffffffffffffffffffffffffffff16636352211e846040518263ffffffff1660e01b815260040161233e919061362f565b602060405180830381865afa15801561235b573d6000803e3d6000fd5b505050506040513d601f19601f8201168201806040525081019061237f91906139c3565b73ffffffffffffffffffffffffffffffffffffffff161461239f57600080fd5b60006005600084815260200190815260200160002054146123bf57600080fd5b600060028054905014806123f8575081600282815481106123e3576123e261378e565b5b90600052602060002090600802016000015414155b61240157600080fd5b600060026001816001815401808255809150500390600052602060002090600802019050828160000181905550838160010160006101000a81548173ffffffffffffffffffffffffffffffffffffffff021916908373ffffffffffffffffffffffffffffffffffffffff160217905550864261247d91906138d5565b816002018190555085816002015461249591906138d5565b816003018190555084816004018190555060016002805490506124b8919061392b565b600560008581526020019081526020016000208190555050505050505050565b600080600560008481526020019081526020016000205490506000600282815481106125075761250661378e565b5b9060005260206000209060080201905060006006600084815260200190815260200160002060008360050160019054906101000a900473ffffffffffffffffffffffffffffffffffffffff1673ffffffffffffffffffffffffffffffffffffffff1673ffffffffffffffffffffffffffffffffffffffff16815260200190815260200160002054905060008260070182815481106125a8576125a761378e565b5b90600052602060002090600402019050826006015487116125d057600094505050505061269d565b600073ffffffffffffffffffffffffffffffffffffffff168360050160019054906101000a900473ffffffffffffffffffffffffffffffffffffffff1673ffffffffffffffffffffffffffffffffffffffff161461264857826006015481600101600082825461264091906138d5565b925050819055505b868360060181905550878360050160016101000a81548173ffffffffffffffffffffffffffffffffffffffff021916908373ffffffffffffffffffffffffffffffffffffffff16021790555060019450505050505b9392505050565b6000600560008381526020019081526020016000205490506000600282815481106126d2576126d161378e565b5b9060005260206000209060080201905060005b81600701805490508110156127b957600082600701828154811061270c5761270b61378e565b5b9060005260206000209060040201905060008160010154905060008111156127a457600082600101819055508160000160009054906101000a900473ffffffffffffffffffffffffffffffffffffffff1673ffffffffffffffffffffffffffffffffffffffff166108fc829081150290604051600060405180830381858888f193505050501580156127a2573d6000803e3d6000fd5b505b505080806127b190613bb8565b9150506126e5565b50505050565b6000600560008381526020019081526020016000205490506000600282815481106127ed576127ec61378e565b5b90600052602060002090600802019050600081600701905060006001600280549050612819919061392b565b905060005b82805490508110156128db57600083828154811061283f5761283e61378e565b5b906000526020600020906004020160000160009054906101000a900473ffffffffffffffffffffffffffffffffffffffff1690506006600087815260200190815260200160002060008273ffffffffffffffffffffffffffffffffffffffff1673ffffffffffffffffffffffffffffffffffffffff168152602001908152602001600020600090555080806128d390613bb8565b91505061281e565b50838114612c8a576000600282815481106128f9576128f861378e565b5b906000526020600020906008020160405180610120016040529081600082015481526020016001820160009054906101000a900473ffffffffffffffffffffffffffffffffffffffff1673ffffffffffffffffffffffffffffffffffffffff1673ffffffffffffffffffffffffffffffffffffffff1681526020016002820154815260200160038201548152602001600482015481526020016005820160009054906101000a900460ff161515151581526020016005820160019054906101000a900473ffffffffffffffffffffffffffffffffffffffff1673ffffffffffffffffffffffffffffffffffffffff1673ffffffffffffffffffffffffffffffffffffffff1681526020016006820154815260200160078201805480602002602001604051908101604052809291908181526020016000905b82821015612ad757838290600052602060002090600402016040518060800160405290816000820160009054906101000a900473ffffffffffffffffffffffffffffffffffffffff1673ffffffffffffffffffffffffffffffffffffffff1673ffffffffffffffffffffffffffffffffffffffff168152602001600182015481526020016002820154815260200160038201548152505081526020019060010190612a31565b5050505081525050905060028281548110612af557612af461378e565b5b906000526020600020906008020160028681548110612b1757612b1661378e565b5b9060005260206000209060080201600082015481600001556001820160009054906101000a900473ffffffffffffffffffffffffffffffffffffffff168160010160006101000a81548173ffffffffffffffffffffffffffffffffffffffff021916908373ffffffffffffffffffffffffffffffffffffffff1602179055506002820154816002015560038201548160030155600482015481600401556005820160009054906101000a900460ff168160050160006101000a81548160ff0219169083151502179055506005820160019054906101000a900473ffffffffffffffffffffffffffffffffffffffff168160050160016101000a81548173ffffffffffffffffffffffffffffffffffffffff021916908373ffffffffffffffffffffffffffffffffffffffff160217905550600682015481600601556007820181600701908054612c68929190612e1e565b5090505084600560008360000151815260200190815260200160002081905550505b60056000868152602001908152602001600020600090556002805480612cb357612cb2613a92565b5b60019003818190600052602060002090600802016000808201600090556001820160006101000a81549073ffffffffffffffffffffffffffffffffffffffff02191690556002820160009055600382016000905560048201600090556005820160006101000a81549060ff02191690556005820160016101000a81549073ffffffffffffffffffffffffffffffffffffffff02191690556006820160009055600782016000612d629190612efb565b505090555050505050565b60405180610120016040528060008152602001600073ffffffffffffffffffffffffffffffffffffffff168152602001600081526020016000815260200160008152602001600015158152602001600073ffffffffffffffffffffffffffffffffffffffff16815260200160008152602001606081525090565b6040518060600160405280600073ffffffffffffffffffffffffffffffffffffffff16815260200160008152602001600081525090565b828054828255906000526020600020906004028101928215612eea5760005260206000209160040282015b82811115612ee95782826000820160009054906101000a900473ffffffffffffffffffffffffffffffffffffffff168160000160006101000a81548173ffffffffffffffffffffffffffffffffffffffff021916908373ffffffffffffffffffffffffffffffffffffffff160217905550600182015481600101556002820154816002015560038201548160030155505091600401919060040190612e49565b5b509050612ef79190612f1f565b5090565b5080546000825560040290600052602060002090810190612f1c9190612f1f565b50565b5b80821115612f7157600080820160006101000a81549073ffffffffffffffffffffffffffffffffffffffff021916905560018201600090556002820160009055600382016000905550600401612f20565b5090565b6000604051905090565b600080fd5b600080fd5b6000819050919050565b612f9c81612f89565b8114612fa757600080fd5b50565b600081359050612fb981612f93565b92915050565b60008115159050919050565b612fd481612fbf565b8114612fdf57600080fd5b50565b600081359050612ff181612fcb565b92915050565b600080fd5b600080fd5b6000601f19601f8301169050919050565b7f4e487b7100000000000000000000000000000000000000000000000000000000600052604160045260246000fd5b61304a82613001565b810181811067ffffffffffffffff8211171561306957613068613012565b5b80604052505050565b600061307c612f75565b90506130888282613041565b919050565b600067ffffffffffffffff8211156130a8576130a7613012565b5b6130b182613001565b9050602081019050919050565b82818337600083830152505050565b60006130e06130db8461308d565b613072565b9050828152602081018484840111156130fc576130fb612ffc565b5b6131078482856130be565b509392505050565b600082601f83011261312457613123612ff7565b5b81356131348482602086016130cd565b91505092915050565b6000806000806080858703121561315757613156612f7f565b5b600061316587828801612faa565b945050602061317687828801612fe2565b935050604085013567ffffffffffffffff81111561319757613196612f84565b5b6131a38782880161310f565b92505060606131b487828801612faa565b91505092959194509250565b6000819050919050565b6131d3816131c0565b81146131de57600080fd5b50565b6000813590506131f0816131ca565b92915050565b6000806040838503121561320d5761320c612f7f565b5b600061321b858286016131e1565b925050602061322c85828601612faa565b9150509250929050565b60006020828403121561324c5761324b612f7f565b5b600061325a84828501612faa565b91505092915050565b60008060006060848603121561327c5761327b612f7f565b5b600061328a86828701612faa565b935050602061329b86828701612fe2565b925050604084013567ffffffffffffffff8111156132bc576132bb612f84565b5b6132c88682870161310f565b9150509250925092565b600081519050919050565b600082825260208201905092915050565b60005b8381101561330c5780820151818401526020810190506132f1565b8381111561331b576000848401525b50505050565b600061332c826132d2565b61333681856132dd565b93506133468185602086016132ee565b61334f81613001565b840191505092915050565b600060208201905081810360008301526133748184613321565b905092915050565b613385816131c0565b82525050565b60006020820190506133a0600083018461337c565b92915050565b6133af81612f89565b82525050565b600073ffffffffffffffffffffffffffffffffffffffff82169050919050565b60006133e0826133b5565b9050919050565b6133f0816133d5565b82525050565b6133ff81612fbf565b82525050565b6000613410826133b5565b9050919050565b61342081613405565b82525050565b600081519050919050565b600082825260208201905092915050565b6000819050602082019050919050565b61345b816131c0565b82525050565b6080820160008201516134776000850182613417565b50602082015161348a60208501826133a6565b50604082015161349d6040850182613452565b5060608201516134b060608501826133a6565b50505050565b60006134c28383613461565b60808301905092915050565b6000602082019050919050565b60006134e682613426565b6134f08185613431565b93506134fb83613442565b8060005b8381101561352c57815161351388826134b6565b975061351e836134ce565b9250506001810190506134ff565b5085935050505092915050565b60006101208301600083015161355260008601826133a6565b50602083015161356560208601826133e7565b50604083015161357860408601826133a6565b50606083015161358b60608601826133a6565b50608083015161359e60808601826133a6565b5060a08301516135b160a08601826133f6565b5060c08301516135c460c0860182613417565b5060e08301516135d760e08601826133a6565b506101008301518482036101008601526135f182826134db565b9150508091505092915050565b600060208201905081810360008301526136188184613539565b905092915050565b61362981612f89565b82525050565b60006020820190506136446000830184613620565b92915050565b6060820160008201516136606000850182613417565b50602082015161367360208501826133a6565b50604082015161368660408501826133a6565b50505050565b60006060820190506136a1600083018461364a565b92915050565b600080604083850312156136be576136bd612f7f565b5b60006136cc85828601612faa565b92505060206136dd85828601612faa565b9150509250929050565b6136f0816133d5565b81146136fb57600080fd5b50565b60008135905061370d816136e7565b92915050565b600080600080600060a0868803121561372f5761372e612f7f565b5b600061373d88828901612faa565b955050602061374e88828901612faa565b945050604061375f88828901612faa565b9350506060613770888289016136fe565b925050608061378188828901612faa565b9150509295509295909350565b7f4e487b7100000000000000000000000000000000000000000000000000000000600052603260045260246000fd5b6000819050919050565b6137d86137d382612f89565b6137bd565b82525050565b60008160f81b9050919050565b60006137f6826137de565b9050919050565b6000613808826137eb565b9050919050565b61382061381b82612fbf565b6137fd565b82525050565b600081519050919050565b600081905092915050565b600061384782613826565b6138518185613831565b93506138618185602086016132ee565b80840191505092915050565b600061387982866137c7565b602082019150613889828561380f565b600182019150613899828461383c565b9150819050949350505050565b7f4e487b7100000000000000000000000000000000000000000000000000000000600052601160045260246000fd5b60006138e082612f89565b91506138eb83612f89565b9250827fffffffffffffffffffffffffffffffffffffffffffffffffffffffffffffffff038211156139205761391f6138a6565b5b828201905092915050565b600061393682612f89565b915061394183612f89565b925082821015613954576139536138a6565b5b828203905092915050565b61396881613405565b82525050565b6000604082019050613983600083018561395f565b6139906020830184613620565b9392505050565b6139a081613405565b81146139ab57600080fd5b50565b6000815190506139bd81613997565b92915050565b6000602082840312156139d9576139d8612f7f565b5b60006139e7848285016139ae565b91505092915050565b6000606082019050613a05600083018661395f565b613a12602083018561395f565b613a1f6040830184613620565b949350505050565b6000604082019050613a3c600083018561395f565b613a49602083018461395f565b9392505050565b600081519050613a5f81612fcb565b92915050565b600060208284031215613a7b57613a7a612f7f565b5b6000613a8984828501613a50565b91505092915050565b7f4e487b7100000000000000000000000000000000000000000000000000000000600052603160045260246000fd5b613aca81612fbf565b82525050565b600082825260208201905092915050565b6000613aec82613826565b613af68185613ad0565b9350613b068185602086016132ee565b613b0f81613001565b840191505092915050565b6000606082019050613b2f6000830186613620565b613b3c6020830185613ac1565b8181036040830152613b4e8184613ae1565b9050949350505050565b6000606082019050613b6d6000830186613620565b613b7a602083018561395f565b613b87604083018461395f565b949350505050565b6000604082019050613ba46000830185613620565b613bb16020830184613620565b9392505050565b6000613bc382612f89565b91507fffffffffffffffffffffffffffffffffffffffffffffffffffffffffffffffff8203613bf557613bf46138a6565b5b60018201905091905056fea2646970667358221220fa67220cbd2ed4342e8fac6339bd6dbfb1423cab30ac4f4301d56375d7f97f2864736f6c634300080d0033",
  "immutableReferences": {},
  "source": "// SPDX-License-Identifier: GPL-3.0\r\npragma solidity ^0.8.0;\r\nimport \"./MsgCoin.sol\";\r\n\r\ncontract Exchange{\r\n    struct Sale {\r\n        address addr;\r\n        uint price;\r\n        uint256 tokenId;\r\n    }\r\n\r\n    struct Bid {\r\n        address customer;\r\n        uint pendingReturns;\r\n        bytes32 blindedBid;\r\n        uint deposit;\r\n    }\r\n\r\n    struct Auction {\r\n        uint256 tokenId;\r\n        address payable beneficiary;\r\n        uint biddingEnd;\r\n        uint  revealEnd;\r\n        uint openingBid;\r\n        bool ended;\r\n        address highestBidder;\r\n        uint highestBid;\r\n        Bid[] bids;\r\n    }\r\n\r\n    Sale[] private Sales;\r\n    address private Coin;\r\n    Auction[] Auctions;    \r\n\r\n    mapping(uint256 => uint256) private IndexOfSale;\r\n    mapping(uint256 => bool) IsSale;\r\n    mapping(uint256 => uint) private IndexOfAuction;\r\n    //mapping(uint => Auction) Auctions;\r\n    // uint\r\n    mapping(uint => mapping(address => uint)) IndexOfCustomer;\r\n\r\n    modifier onlyBefore(uint _time) { require(block.timestamp < _time); _; }\r\n    modifier onlyAfter(uint _time) { require(block.timestamp > _time); _; }\r\n\r\n    event setSaled(uint256 _tokenId, uint price);\r\n    event removeSaled(uint256 _tokenId);\r\n    event finishSale(uint256 _tokenId, address from, address to);\r\n    event AuctionEnded(address winner, uint highestBid);\r\n\r\n\r\n    constructor (address _Coin){\r\n        Coin = _Coin;\r\n    }\r\n\r\n    function getSaleIndex (uint256 _tokenId) public view returns (uint256) {\r\n        require(IsSale[_tokenId]);\r\n        return IndexOfSale[_tokenId];\r\n    } \r\n\r\n    function setSale (uint256 _tokenId, uint _price) external returns (uint256) {\r\n        require(\r\n            MsgCoin(Coin).getApproved(_tokenId) == address(this) \r\n            || \r\n            MsgCoin(Coin).isApprovedForAll(msg.sender, address(this) ));\r\n        require(MsgCoin(Coin).ownerOf(_tokenId) == msg.sender);\r\n        require(IsSale[_tokenId] == false);\r\n        Sale memory newSale;\r\n        newSale.addr = MsgCoin(Coin).ownerOf(_tokenId);\r\n        newSale.price = _price;\r\n        newSale.tokenId = _tokenId;\r\n        Sales.push(newSale);\r\n        IndexOfSale[_tokenId] = Sales.length - 1;\r\n        IsSale[_tokenId] = true;\r\n        emit setSaled(_tokenId, _price);\r\n        return IndexOfSale[_tokenId];\r\n    }\r\n\r\n    function removeSale (uint256 _tokenId) public {\r\n        require(\r\n            MsgCoin(Coin).getApproved(_tokenId) == address(this) \r\n            || \r\n            MsgCoin(Coin).isApprovedForAll(msg.sender, address(this) ));\r\n        require(MsgCoin(Coin).ownerOf(_tokenId) == msg.sender);\r\n\r\n        uint256 lastIndex = Sales.length - 1;\r\n        uint256 SaleIndex = getSaleIndex(_tokenId);\r\n\r\n        if(lastIndex != SaleIndex){\r\n            Sale memory lastSale = Sales[lastIndex];\r\n\r\n            Sales[SaleIndex] = lastSale;\r\n            IndexOfSale[lastSale.tokenId] = SaleIndex;\r\n        }\r\n        delete IndexOfSale[_tokenId];\r\n        Sales.pop();\r\n        IsSale[_tokenId] = false;\r\n\r\n        emit removeSaled(_tokenId);\r\n    }\r\n\r\n    function paySale (uint256 _tokenId) external payable {\r\n        uint value = msg.value;\r\n        Sale memory _Sale = Sales[getSaleIndex(_tokenId)];\r\n        require(_Sale.price == value);\r\n        address payable ap = payable(MsgCoin(Coin).ownerOf(_tokenId));\r\n        MsgCoin(Coin).safeTransferFrom(MsgCoin(Coin).ownerOf(_tokenId), msg.sender, _tokenId);\r\n        ap.transfer(value);\r\n        uint256 lastIndex = Sales.length - 1;\r\n        uint256 SaleIndex = getSaleIndex(_tokenId);\r\n\r\n        if(lastIndex != SaleIndex){\r\n            Sale memory lastSale = Sales[lastIndex];\r\n\r\n            Sales[SaleIndex] = lastSale;\r\n            IndexOfSale[lastSale.tokenId] = SaleIndex;\r\n        }\r\n        delete IndexOfSale[_tokenId];\r\n        Sales.pop();\r\n        IsSale[_tokenId] = false;\r\n\r\n        emit finishSale(_tokenId, MsgCoin(Coin).ownerOf(_tokenId), msg.sender);\r\n    }\r\n\r\n    function getSaleByIndex (uint256 _index) external view returns (Sale memory) {\r\n        return Sales[_index];\r\n    }\r\n\r\n    function setAuction (\r\n        uint _biddingTime,\r\n        uint _revealTime,\r\n        uint _openingBid,\r\n        address payable _beneficiary,\r\n        uint256 _tokenId\r\n    ) public {\r\n        uint index = IndexOfAuction[_tokenId];\r\n        require(\r\n            MsgCoin(Coin).getApproved(_tokenId) == address(this) \r\n            || \r\n            MsgCoin(Coin).isApprovedForAll(msg.sender, address(this) ));\r\n        require(MsgCoin(Coin).ownerOf(_tokenId) == msg.sender);\r\n        require(IndexOfAuction[_tokenId] == 0);\r\n        require(Auctions.length == 0 || Auctions[index].tokenId != _tokenId);\r\n        Auction storage auc = Auctions.push();\r\n        auc.tokenId = _tokenId;\r\n        auc.beneficiary = _beneficiary;\r\n        auc.biddingEnd = block.timestamp + _biddingTime;\r\n        auc.revealEnd = auc.biddingEnd + _revealTime;\r\n        auc.openingBid = _openingBid;\r\n        IndexOfAuction[_tokenId] = Auctions.length - 1;\r\n    }\r\n\r\n    ///  `_blindedBid` = keccak256(value, fake, secret)\r\n    /// \r\n    /// \r\n    ///  value  fake \r\n    ///  fake  true \r\n    function setBid(bytes32 _blindedBid, uint256 _tokenId)\r\n        public\r\n        payable\r\n        onlyBefore(Auctions[IndexOfAuction[_tokenId]].biddingEnd)\r\n    {\r\n        uint index = IndexOfAuction[_tokenId];\r\n        uint indexOfC = IndexOfCustomer[index][msg.sender];\r\n        Auction storage Auc = Auctions[index];\r\n        require(msg.value >= Auc.openingBid);\r\n        if(Auc.bids.length == 0 || Auc.bids[indexOfC].customer != msg.sender){\r\n            Bid storage bid = Auc.bids.push();\r\n            bid.customer = msg.sender;\r\n            bid.pendingReturns = 0;\r\n            bid.blindedBid = _blindedBid;\r\n            bid.deposit = msg.value;\r\n            IndexOfCustomer[index][msg.sender] = Auc.bids.length - 1;\r\n\r\n        }\r\n        else if(Auc.bids[indexOfC].customer == msg.sender) {\r\n            uint deposit = Auc.bids[indexOfC].deposit;\r\n            Auc.bids[indexOfC].customer = msg.sender;\r\n            Auc.bids[indexOfC].pendingReturns = 0;\r\n            Auc.bids[indexOfC].blindedBid = _blindedBid;\r\n            Auc.bids[indexOfC].deposit = deposit + msg.value;\r\n        }\r\n    }\r\n\r\n    function reveal(\r\n        uint _values,\r\n        bool _fake,\r\n        string memory _secret,\r\n        uint256 _tokenId\r\n    )\r\n        public\r\n        onlyAfter(Auctions[IndexOfAuction[_tokenId]].biddingEnd)\r\n        onlyBefore(Auctions[IndexOfAuction[_tokenId]].revealEnd)\r\n    {\r\n        uint index = IndexOfAuction[_tokenId];\r\n        uint indexOfC = IndexOfCustomer[index][msg.sender];\r\n        Auction storage Auc = Auctions[index];\r\n        Bid storage bid = Auc.bids[indexOfC];\r\n        uint refund;\r\n        (uint value, bool fake, string memory secret) =\r\n                (_values, _fake, _secret);\r\n        if (bid.blindedBid != keccak256(abi.encodePacked(value, fake, secret))) {\r\n            // \r\n            // \r\n            return;\r\n        }\r\n        refund += bid.deposit;\r\n        if (!fake && bid.deposit >= value && Auc.openingBid <= value) {\r\n            if (placeBid(msg.sender, value, _tokenId))\r\n                refund -= value;\r\n        }\r\n        // \r\n        bid.blindedBid = bytes32(0);\r\n        payable(msg.sender).transfer(refund);\r\n    }\r\n\r\n    function placeBid(address bidder, uint value, uint256 _tokenId) internal\r\n            returns (bool success)\r\n    {\r\n        uint index = IndexOfAuction[_tokenId];\r\n        Auction storage Auc = Auctions[index];\r\n        uint indexOfC = IndexOfCustomer[index][Auc.highestBidder];\r\n        Bid storage bid = Auc.bids[indexOfC];\r\n        if (value <= Auc.highestBid) {\r\n            return false;\r\n        }\r\n        if (Auc.highestBidder != address(0)) {\r\n            // \r\n            bid.pendingReturns += Auc.highestBid;\r\n        }\r\n        Auc.highestBid = value;\r\n        Auc.highestBidder = bidder;\r\n        return true;\r\n    }\r\n\r\n    /// \r\n    function withdraw(uint256 _tokenId) internal {\r\n        uint index = IndexOfAuction[_tokenId];\r\n        //uint indexOfC = IndexOfCustomer[index][msg.sender];\r\n        Auction storage Auc = Auctions[index];\r\n        for(uint indexOfC = 0; indexOfC < Auc.bids.length; indexOfC++){\r\n            Bid storage bid = Auc.bids[indexOfC];\r\n            uint amount = bid.pendingReturns;\r\n            if (amount > 0) {\r\n                // \r\n                // \r\n                //  `transfer` \r\n                bid.pendingReturns = 0;\r\n                payable(bid.customer).transfer(amount);\r\n            }\r\n        }      \r\n    }\r\n\r\n    /// \r\n    function auctionEnd(uint256 _tokenId)\r\n        public\r\n        onlyAfter(Auctions[IndexOfAuction[_tokenId]].revealEnd)\r\n    {\r\n        uint index = IndexOfAuction[_tokenId];\r\n        require(msg.sender == Auctions[index].beneficiary);\r\n        require(!Auctions[index].ended);\r\n        emit AuctionEnded(Auctions[index].highestBidder, Auctions[index].highestBid);\r\n        withdraw(_tokenId);\r\n        Auctions[index].ended = true;\r\n        Auctions[index].beneficiary.transfer(Auctions[index].highestBid);\r\n        if(Auctions[index].highestBidder != address(0)){\r\n            MsgCoin(Coin).safeTransferFrom(MsgCoin(Coin).ownerOf(_tokenId), Auctions[index].highestBidder, _tokenId);\r\n        }\r\n        removeAuction(_tokenId);\r\n\r\n    }\r\n\r\n    function getAuction(uint _index) public view returns (Auction memory) {\r\n        return Auctions[_index];\r\n    }\r\n\r\n    function removeAuction(uint256 _tokenId) private {\r\n        uint index = IndexOfAuction[_tokenId];\r\n        //uint indexOfC = IndexOfCustomer[index][msg.sender];\r\n        Auction storage Auc = Auctions[index];\r\n        Bid[] storage bids = Auc.bids;\r\n        uint lastIndex = Auctions.length - 1;\r\n\r\n        for(uint i = 0; i < bids.length; i++){\r\n            address addr = bids[i].customer;\r\n            delete IndexOfCustomer[index][addr];\r\n         }           \r\n\r\n        if(lastIndex != index){\r\n            Auction memory lastAuction = Auctions[lastIndex];\r\n            Auctions[index] = Auctions[lastIndex];\r\n            IndexOfAuction[lastAuction.tokenId] = index;\r\n        }\r\n        delete IndexOfAuction[_tokenId];\r\n        Auctions.pop();\r\n    }\r\n\r\n    function getHash (uint value, bool fake, string memory secret) public pure returns (bytes32){\r\n        return keccak256(abi.encodePacked(value, fake, secret));\r\n    }\r\n\r\n    function code (uint value, bool fake, string memory secret) public pure returns (bytes memory){\r\n        return abi.encode(value, fake, secret);\r\n    }\r\n\r\n    function codeP (uint value, bool fake, string memory secret) public pure returns (bytes memory){\r\n        return abi.encodePacked(value, fake, secret);\r\n    }\r\n\r\n    function getIndexOfAuction(uint256 _tokenId) public view returns (uint){\r\n        return IndexOfAuction[_tokenId];\r\n    }\r\n\r\n}",
  "sourcePath": "D:\\Users\\HuangHao\\Desktop\\truffle-react\\contracts\\Exchange.sol",
  "compiler": {
    "name": "solc",
    "version": "0.8.13+commit.abaa5c0e.Emscripten.clang"
  },
  "schemaVersion": "3.4.3",
  "updatedAt": "2022-05-02T12:48:04.837Z",
  "networkType": "ethereum",
  "devdoc": {
    "kind": "dev",
    "methods": {},
    "version": 1
  },
  "userdoc": {
    "kind": "user",
    "methods": {
      "auctionEnd(uint256)": {
        "notice": ""
      },
      "setBid(bytes32,uint256)": {
        "notice": " `_blindedBid` = keccak256(value, fake, secret)    value  fake   fake  true "
      }
    },
    "version": 1
  }
}