{
  "contractName": "MsgCoin",
  "abi": [
    {
      "inputs": [],
      "stateMutability": "nonpayable",
      "type": "constructor"
    },
    {
      "anonymous": false,
      "inputs": [
        {
          "indexed": true,
          "internalType": "address",
          "name": "owner",
          "type": "address"
        },
        {
          "indexed": true,
          "internalType": "address",
          "name": "approved",
          "type": "address"
        },
        {
          "indexed": true,
          "internalType": "uint256",
          "name": "tokenId",
          "type": "uint256"
        }
      ],
      "name": "Approval",
      "type": "event"
    },
    {
      "anonymous": false,
      "inputs": [
        {
          "indexed": true,
          "internalType": "address",
          "name": "owner",
          "type": "address"
        },
        {
          "indexed": true,
          "internalType": "address",
          "name": "operator",
          "type": "address"
        },
        {
          "indexed": false,
          "internalType": "bool",
          "name": "approved",
          "type": "bool"
        }
      ],
      "name": "ApprovalForAll",
      "type": "event"
    },
    {
      "anonymous": false,
      "inputs": [
        {
          "indexed": true,
          "internalType": "address",
          "name": "from",
          "type": "address"
        },
        {
          "indexed": true,
          "internalType": "address",
          "name": "to",
          "type": "address"
        },
        {
          "indexed": true,
          "internalType": "uint256",
          "name": "tokenId",
          "type": "uint256"
        }
      ],
      "name": "Transfer",
      "type": "event"
    },
    {
      "inputs": [
        {
          "internalType": "uint256",
          "name": "tokenId",
          "type": "uint256"
        }
      ],
      "name": "Metadata",
      "outputs": [
        {
          "internalType": "string",
          "name": "",
          "type": "string"
        }
      ],
      "stateMutability": "view",
      "type": "function",
      "constant": true
    },
    {
      "inputs": [
        {
          "internalType": "address",
          "name": "to",
          "type": "address"
        },
        {
          "internalType": "uint256",
          "name": "tokenId",
          "type": "uint256"
        }
      ],
      "name": "approve",
      "outputs": [],
      "stateMutability": "nonpayable",
      "type": "function"
    },
    {
      "inputs": [
        {
          "internalType": "address",
          "name": "owner",
          "type": "address"
        }
      ],
      "name": "balanceOf",
      "outputs": [
        {
          "internalType": "uint256",
          "name": "",
          "type": "uint256"
        }
      ],
      "stateMutability": "view",
      "type": "function",
      "constant": true
    },
    {
      "inputs": [
        {
          "internalType": "uint256",
          "name": "tokenId",
          "type": "uint256"
        }
      ],
      "name": "getApproved",
      "outputs": [
        {
          "internalType": "address",
          "name": "",
          "type": "address"
        }
      ],
      "stateMutability": "view",
      "type": "function",
      "constant": true
    },
    {
      "inputs": [
        {
          "internalType": "address",
          "name": "owner",
          "type": "address"
        },
        {
          "internalType": "address",
          "name": "operator",
          "type": "address"
        }
      ],
      "name": "isApprovedForAll",
      "outputs": [
        {
          "internalType": "bool",
          "name": "",
          "type": "bool"
        }
      ],
      "stateMutability": "view",
      "type": "function",
      "constant": true
    },
    {
      "inputs": [],
      "name": "name",
      "outputs": [
        {
          "internalType": "string",
          "name": "",
          "type": "string"
        }
      ],
      "stateMutability": "view",
      "type": "function",
      "constant": true
    },
    {
      "inputs": [
        {
          "internalType": "uint256",
          "name": "tokenId",
          "type": "uint256"
        }
      ],
      "name": "ownerOf",
      "outputs": [
        {
          "internalType": "address",
          "name": "",
          "type": "address"
        }
      ],
      "stateMutability": "view",
      "type": "function",
      "constant": true
    },
    {
      "inputs": [
        {
          "internalType": "address",
          "name": "from",
          "type": "address"
        },
        {
          "internalType": "address",
          "name": "to",
          "type": "address"
        },
        {
          "internalType": "uint256",
          "name": "tokenId",
          "type": "uint256"
        }
      ],
      "name": "safeTransferFrom",
      "outputs": [],
      "stateMutability": "nonpayable",
      "type": "function"
    },
    {
      "inputs": [
        {
          "internalType": "address",
          "name": "from",
          "type": "address"
        },
        {
          "internalType": "address",
          "name": "to",
          "type": "address"
        },
        {
          "internalType": "uint256",
          "name": "tokenId",
          "type": "uint256"
        },
        {
          "internalType": "bytes",
          "name": "_data",
          "type": "bytes"
        }
      ],
      "name": "safeTransferFrom",
      "outputs": [],
      "stateMutability": "nonpayable",
      "type": "function"
    },
    {
      "inputs": [
        {
          "internalType": "address",
          "name": "operator",
          "type": "address"
        },
        {
          "internalType": "bool",
          "name": "approved",
          "type": "bool"
        }
      ],
      "name": "setApprovalForAll",
      "outputs": [],
      "stateMutability": "nonpayable",
      "type": "function"
    },
    {
      "inputs": [
        {
          "internalType": "bytes4",
          "name": "interfaceId",
          "type": "bytes4"
        }
      ],
      "name": "supportsInterface",
      "outputs": [
        {
          "internalType": "bool",
          "name": "",
          "type": "bool"
        }
      ],
      "stateMutability": "view",
      "type": "function",
      "constant": true
    },
    {
      "inputs": [],
      "name": "symbol",
      "outputs": [
        {
          "internalType": "string",
          "name": "",
          "type": "string"
        }
      ],
      "stateMutability": "view",
      "type": "function",
      "constant": true
    },
    {
      "inputs": [
        {
          "internalType": "uint256",
          "name": "index",
          "type": "uint256"
        }
      ],
      "name": "tokenByIndex",
      "outputs": [
        {
          "internalType": "uint256",
          "name": "",
          "type": "uint256"
        }
      ],
      "stateMutability": "view",
      "type": "function",
      "constant": true
    },
    {
      "inputs": [
        {
          "internalType": "address",
          "name": "owner",
          "type": "address"
        },
        {
          "internalType": "uint256",
          "name": "index",
          "type": "uint256"
        }
      ],
      "name": "tokenOfOwnerByIndex",
      "outputs": [
        {
          "internalType": "uint256",
          "name": "",
          "type": "uint256"
        }
      ],
      "stateMutability": "view",
      "type": "function",
      "constant": true
    },
    {
      "inputs": [
        {
          "internalType": "uint256",
          "name": "tokenId",
          "type": "uint256"
        }
      ],
      "name": "tokenURI",
      "outputs": [
        {
          "internalType": "string",
          "name": "",
          "type": "string"
        }
      ],
      "stateMutability": "view",
      "type": "function",
      "constant": true
    },
    {
      "inputs": [],
      "name": "totalSupply",
      "outputs": [
        {
          "internalType": "uint256",
          "name": "",
          "type": "uint256"
        }
      ],
      "stateMutability": "view",
      "type": "function",
      "constant": true
    },
    {
      "inputs": [
        {
          "internalType": "address",
          "name": "from",
          "type": "address"
        },
        {
          "internalType": "address",
          "name": "to",
          "type": "address"
        },
        {
          "internalType": "uint256",
          "name": "tokenId",
          "type": "uint256"
        }
      ],
      "name": "transferFrom",
      "outputs": [],
      "stateMutability": "nonpayable",
      "type": "function"
    },
    {
      "inputs": [
        {
          "internalType": "address",
          "name": "recipient",
          "type": "address"
        },
        {
          "internalType": "string",
          "name": "hash",
          "type": "string"
        },
        {
          "internalType": "string",
          "name": "metadata",
          "type": "string"
        }
      ],
      "name": "awardItem",
      "outputs": [
        {
          "internalType": "uint256",
          "name": "",
          "type": "uint256"
        }
      ],
      "stateMutability": "nonpayable",
      "type": "function"
    },
    {
      "inputs": [],
      "name": "getTokenIds",
      "outputs": [
        {
          "internalType": "uint256",
          "name": "",
          "type": "uint256"
        }
      ],
      "stateMutability": "view",
      "type": "function",
      "constant": true
    },
    {
      "inputs": [
        {
          "internalType": "uint256",
          "name": "_tokenId",
          "type": "uint256"
        }
      ],
      "name": "getTimeOfTokenId",
      "outputs": [
        {
          "internalType": "uint256",
          "name": "",
          "type": "uint256"
        }
      ],
      "stateMutability": "view",
      "type": "function",
      "constant": true
    }
  ],
  "bytecode": "0x60806040523480156200001157600080fd5b506040518060400160405280600b81526020017f556e6971756541737365740000000000000000000000000000000000000000008152506040518060400160405280600381526020017f554e410000000000000000000000000000000000000000000000000000000000815250816000908051906020019062000096929190620000b8565b508060019080519060200190620000af929190620000b8565b505050620001cc565b828054620000c69062000197565b90600052602060002090601f016020900481019282620000ea576000855562000136565b82601f106200010557805160ff191683800117855562000136565b8280016001018555821562000136579182015b828111156200013557825182559160200191906001019062000118565b5b50905062000145919062000149565b5090565b5b80821115620001645760008160009055506001016200014a565b5090565b7f4e487b7100000000000000000000000000000000000000000000000000000000600052602260045260246000fd5b60006002820490506001821680620001b057607f821691505b602082108103620001c657620001c562000168565b5b50919050565b61361a80620001dc6000396000f3fe608060405234801561001057600080fd5b506004361061012c5760003560e01c806367f718a9116100ad578063a22cb46511610071578063a22cb4651461037d578063ace1f05514610399578063b88d4fde146103c9578063c87b56dd146103e5578063e985e9c5146104155761012c565b806367f718a9146102b15780636f47ffc8146102cf57806370a08231146102ff5780638bfaf1011461032f57806395d89b411461035f5761012c565b806323b872dd116100f457806323b872dd146101e95780632f745c591461020557806342842e0e146102355780634f6ccce7146102515780636352211e146102815761012c565b806301ffc9a71461013157806306fdde0314610161578063081812fc1461017f578063095ea7b3146101af57806318160ddd146101cb575b600080fd5b61014b600480360381019061014691906121e5565b610445565b604051610158919061222d565b60405180910390f35b610169610527565b60405161017691906122e1565b60405180910390f35b61019960048036038101906101949190612339565b6105b9565b6040516101a691906123a7565b60405180910390f35b6101c960048036038101906101c491906123ee565b61063e565b005b6101d3610755565b6040516101e0919061243d565b60405180910390f35b61020360048036038101906101fe9190612458565b610762565b005b61021f600480360381019061021a91906123ee565b6107c2565b60405161022c919061243d565b60405180910390f35b61024f600480360381019061024a9190612458565b610867565b005b61026b60048036038101906102669190612339565b610887565b604051610278919061243d565b60405180910390f35b61029b60048036038101906102969190612339565b6108f8565b6040516102a891906123a7565b60405180910390f35b6102b96109a9565b6040516102c6919061243d565b60405180910390f35b6102e960048036038101906102e49190612339565b6109ba565b6040516102f6919061243d565b60405180910390f35b610319600480360381019061031491906124ab565b6109d7565b604051610326919061243d565b60405180910390f35b6103496004803603810190610344919061260d565b610a8e565b604051610356919061243d565b60405180910390f35b610367610b6d565b60405161037491906122e1565b60405180910390f35b610397600480360381019061039291906126c4565b610bff565b005b6103b360048036038101906103ae9190612339565b610c15565b6040516103c091906122e1565b60405180910390f35b6103e360048036038101906103de91906127a5565b610d02565b005b6103ff60048036038101906103fa9190612339565b610d64565b60405161040c91906122e1565b60405180910390f35b61042f600480360381019061042a9190612828565b610eb5565b60405161043c919061222d565b60405180910390f35b60007f80ac58cd000000000000000000000000000000000000000000000000000000007bffffffffffffffffffffffffffffffffffffffffffffffffffffffff1916827bffffffffffffffffffffffffffffffffffffffffffffffffffffffff1916148061051057507f5b5e139f000000000000000000000000000000000000000000000000000000007bffffffffffffffffffffffffffffffffffffffffffffffffffffffff1916827bffffffffffffffffffffffffffffffffffffffffffffffffffffffff1916145b80610520575061051f82610f49565b5b9050919050565b60606000805461053690612897565b80601f016020809104026020016040519081016040528092919081815260200182805461056290612897565b80156105af5780601f10610584576101008083540402835291602001916105af565b820191906000526020600020905b81548152906001019060200180831161059257829003601f168201915b5050505050905090565b60006105c482610fb3565b610603576040517f08c379a00000000000000000000000000000000000000000000000000000000081526004016105fa9061293a565b60405180910390fd5b6004600083815260200190815260200160002060009054906101000a900473ffffffffffffffffffffffffffffffffffffffff169050919050565b6000610649826108f8565b90508073ffffffffffffffffffffffffffffffffffffffff168373ffffffffffffffffffffffffffffffffffffffff16036106b9576040517f08c379a00000000000000000000000000000000000000000000000000000000081526004016106b0906129cc565b60405180910390fd5b8073ffffffffffffffffffffffffffffffffffffffff166106d861101f565b73ffffffffffffffffffffffffffffffffffffffff16148061070757506107068161070161101f565b610eb5565b5b610746576040517f08c379a000000000000000000000000000000000000000000000000000000000815260040161073d90612a5e565b60405180910390fd5b6107508383611027565b505050565b6000600a80549050905090565b61077361076d61101f565b826110e0565b6107b2576040517f08c379a00000000000000000000000000000000000000000000000000000000081526004016107a990612af0565b60405180910390fd5b6107bd8383836111be565b505050565b60006107cd836109d7565b821061080e576040517f08c379a000000000000000000000000000000000000000000000000000000000815260040161080590612b82565b60405180910390fd5b600860008473ffffffffffffffffffffffffffffffffffffffff1673ffffffffffffffffffffffffffffffffffffffff168152602001908152602001600020600083815260200190815260200160002054905092915050565b61088283838360405180602001604052806000815250610d02565b505050565b6000610891610755565b82106108d2576040517f08c379a00000000000000000000000000000000000000000000000000000000081526004016108c990612c14565b60405180910390fd5b600a82815481106108e6576108e5612c34565b5b90600052602060002001549050919050565b6000806002600084815260200190815260200160002060009054906101000a900473ffffffffffffffffffffffffffffffffffffffff169050600073ffffffffffffffffffffffffffffffffffffffff168173ffffffffffffffffffffffffffffffffffffffff16036109a0576040517f08c379a000000000000000000000000000000000000000000000000000000000815260040161099790612cd5565b60405180910390fd5b80915050919050565b60006109b5600c611424565b905090565b6000600e6000838152602001908152602001600020549050919050565b60008073ffffffffffffffffffffffffffffffffffffffff168273ffffffffffffffffffffffffffffffffffffffff1603610a47576040517f08c379a0000000000000000000000000000000000000000000000000000000008152600401610a3e90612d67565b60405180910390fd5b600360008373ffffffffffffffffffffffffffffffffffffffff1673ffffffffffffffffffffffffffffffffffffffff168152602001908152602001600020549050919050565b60006001600d84604051610aa29190612dc3565b908152602001604051809103902060009054906101000a900460ff1660ff1603610acb57600080fd5b6001600d84604051610add9190612dc3565b908152602001604051809103902060006101000a81548160ff021916908360ff160217905550600083604051602001610b169190612dc3565b6040516020818303038152906040528051906020012060001c9050610b3b600c611432565b610b458582611448565b610b4f8185611621565b610b598184611695565b610b6281611709565b809150509392505050565b606060018054610b7c90612897565b80601f0160208091040260200160405190810160405280929190818152602001828054610ba890612897565b8015610bf55780601f10610bca57610100808354040283529160200191610bf5565b820191906000526020600020905b815481529060010190602001808311610bd857829003601f168201915b5050505050905090565b610c11610c0a61101f565b8383611724565b5050565b6060610c2082610fb3565b610c5f576040517f08c379a0000000000000000000000000000000000000000000000000000000008152600401610c5690612e4c565b60405180910390fd5b600760008381526020019081526020016000208054610c7d90612897565b80601f0160208091040260200160405190810160405280929190818152602001828054610ca990612897565b8015610cf65780601f10610ccb57610100808354040283529160200191610cf6565b820191906000526020600020905b815481529060010190602001808311610cd957829003601f168201915b50505050509050919050565b610d13610d0d61101f565b836110e0565b610d52576040517f08c379a0000000000000000000000000000000000000000000000000000000008152600401610d4990612af0565b60405180910390fd5b610d5e84848484611890565b50505050565b6060610d6f82610fb3565b610dae576040517f08c379a0000000000000000000000000000000000000000000000000000000008152600401610da590612e4c565b60405180910390fd5b6000600660008481526020019081526020016000208054610dce90612897565b80601f0160208091040260200160405190810160405280929190818152602001828054610dfa90612897565b8015610e475780601f10610e1c57610100808354040283529160200191610e47565b820191906000526020600020905b815481529060010190602001808311610e2a57829003601f168201915b505050505090506000610e586118ec565b90506000815103610e6d578192505050610eb0565b600082511115610ea2578082604051602001610e8a929190612e6c565b60405160208183030381529060405292505050610eb0565b610eab84611903565b925050505b919050565b6000600560008473ffffffffffffffffffffffffffffffffffffffff1673ffffffffffffffffffffffffffffffffffffffff16815260200190815260200160002060008373ffffffffffffffffffffffffffffffffffffffff1673ffffffffffffffffffffffffffffffffffffffff16815260200190815260200160002060009054906101000a900460ff16905092915050565b60007f01ffc9a7000000000000000000000000000000000000000000000000000000007bffffffffffffffffffffffffffffffffffffffffffffffffffffffff1916827bffffffffffffffffffffffffffffffffffffffffffffffffffffffff1916149050919050565b60008073ffffffffffffffffffffffffffffffffffffffff166002600084815260200190815260200160002060009054906101000a900473ffffffffffffffffffffffffffffffffffffffff1673ffffffffffffffffffffffffffffffffffffffff1614159050919050565b600033905090565b816004600083815260200190815260200160002060006101000a81548173ffffffffffffffffffffffffffffffffffffffff021916908373ffffffffffffffffffffffffffffffffffffffff160217905550808273ffffffffffffffffffffffffffffffffffffffff1661109a836108f8565b73ffffffffffffffffffffffffffffffffffffffff167f8c5be1e5ebec7d5bd14f71427d1e84f3dd0314c0f7b2291e5b200ac8c7c3b92560405160405180910390a45050565b60006110eb82610fb3565b61112a576040517f08c379a000000000000000000000000000000000000000000000000000000000815260040161112190612f02565b60405180910390fd5b6000611135836108f8565b90508073ffffffffffffffffffffffffffffffffffffffff168473ffffffffffffffffffffffffffffffffffffffff1614806111a457508373ffffffffffffffffffffffffffffffffffffffff1661118c846105b9565b73ffffffffffffffffffffffffffffffffffffffff16145b806111b557506111b48185610eb5565b5b91505092915050565b8273ffffffffffffffffffffffffffffffffffffffff166111de826108f8565b73ffffffffffffffffffffffffffffffffffffffff1614611234576040517f08c379a000000000000000000000000000000000000000000000000000000000815260040161122b90612f94565b60405180910390fd5b600073ffffffffffffffffffffffffffffffffffffffff168273ffffffffffffffffffffffffffffffffffffffff16036112a3576040517f08c379a000000000000000000000000000000000000000000000000000000000815260040161129a90613026565b60405180910390fd5b6112ae8383836119aa565b6112b9600082611027565b6001600360008573ffffffffffffffffffffffffffffffffffffffff1673ffffffffffffffffffffffffffffffffffffffff16815260200190815260200160002060008282546113099190613075565b925050819055506001600360008473ffffffffffffffffffffffffffffffffffffffff1673ffffffffffffffffffffffffffffffffffffffff168152602001908152602001600020600082825461136091906130a9565b92505081905550816002600083815260200190815260200160002060006101000a81548173ffffffffffffffffffffffffffffffffffffffff021916908373ffffffffffffffffffffffffffffffffffffffff160217905550808273ffffffffffffffffffffffffffffffffffffffff168473ffffffffffffffffffffffffffffffffffffffff167fddf252ad1be2c89b69c2b068fc378daa952ba7f163c4a11628f55a4df523b3ef60405160405180910390a461141f838383611abc565b505050565b600081600001549050919050565b6001816000016000828254019250508190555050565b600073ffffffffffffffffffffffffffffffffffffffff168273ffffffffffffffffffffffffffffffffffffffff16036114b7576040517f08c379a00000000000000000000000000000000000000000000000000000000081526004016114ae9061314b565b60405180910390fd5b6114c081610fb3565b15611500576040517f08c379a00000000000000000000000000000000000000000000000000000000081526004016114f7906131b7565b60405180910390fd5b61150c600083836119aa565b6001600360008473ffffffffffffffffffffffffffffffffffffffff1673ffffffffffffffffffffffffffffffffffffffff168152602001908152602001600020600082825461155c91906130a9565b92505081905550816002600083815260200190815260200160002060006101000a81548173ffffffffffffffffffffffffffffffffffffffff021916908373ffffffffffffffffffffffffffffffffffffffff160217905550808273ffffffffffffffffffffffffffffffffffffffff16600073ffffffffffffffffffffffffffffffffffffffff167fddf252ad1be2c89b69c2b068fc378daa952ba7f163c4a11628f55a4df523b3ef60405160405180910390a461161d60008383611abc565b5050565b61162a82610fb3565b611669576040517f08c379a000000000000000000000000000000000000000000000000000000000815260040161166090613249565b60405180910390fd5b806006600084815260200190815260200160002090805190602001906116909291906120d6565b505050565b61169e82610fb3565b6116dd576040517f08c379a00000000000000000000000000000000000000000000000000000000081526004016116d490613249565b60405180910390fd5b806007600084815260200190815260200160002090805190602001906117049291906120d6565b505050565b42600e60008381526020019081526020016000208190555050565b8173ffffffffffffffffffffffffffffffffffffffff168373ffffffffffffffffffffffffffffffffffffffff1603611792576040517f08c379a0000000000000000000000000000000000000000000000000000000008152600401611789906132b5565b60405180910390fd5b80600560008573ffffffffffffffffffffffffffffffffffffffff1673ffffffffffffffffffffffffffffffffffffffff16815260200190815260200160002060008473ffffffffffffffffffffffffffffffffffffffff1673ffffffffffffffffffffffffffffffffffffffff16815260200190815260200160002060006101000a81548160ff0219169083151502179055508173ffffffffffffffffffffffffffffffffffffffff168373ffffffffffffffffffffffffffffffffffffffff167f17307eab39ab6107e8899845ad3d59bd9653f200f220920489ca2b5937696c3183604051611883919061222d565b60405180910390a3505050565b61189b8484846111be565b6118a784848484611ac1565b6118e6576040517f08c379a00000000000000000000000000000000000000000000000000000000081526004016118dd90613347565b60405180910390fd5b50505050565b606060405180602001604052806000815250905090565b606061190e82610fb3565b61194d576040517f08c379a0000000000000000000000000000000000000000000000000000000008152600401611944906133d9565b60405180910390fd5b60006119576118ec565b9050600081511161197757604051806020016040528060008152506119a2565b8061198184611c48565b604051602001611992929190612e6c565b6040516020818303038152906040525b915050919050565b6119b5838383611da8565b600073ffffffffffffffffffffffffffffffffffffffff168373ffffffffffffffffffffffffffffffffffffffff16036119f7576119f281611dad565b611a36565b8173ffffffffffffffffffffffffffffffffffffffff168373ffffffffffffffffffffffffffffffffffffffff1614611a3557611a348382611df6565b5b5b600073ffffffffffffffffffffffffffffffffffffffff168273ffffffffffffffffffffffffffffffffffffffff1603611a7857611a7381611f63565b611ab7565b8273ffffffffffffffffffffffffffffffffffffffff168273ffffffffffffffffffffffffffffffffffffffff1614611ab657611ab58282612034565b5b5b505050565b505050565b6000611ae28473ffffffffffffffffffffffffffffffffffffffff166120b3565b15611c3b578373ffffffffffffffffffffffffffffffffffffffff1663150b7a02611b0b61101f565b8786866040518563ffffffff1660e01b8152600401611b2d949392919061344e565b6020604051808303816000875af1925050508015611b6957506040513d601f19601f82011682018060405250810190611b6691906134af565b60015b611beb573d8060008114611b99576040519150601f19603f3d011682016040523d82523d6000602084013e611b9e565b606091505b506000815103611be3576040517f08c379a0000000000000000000000000000000000000000000000000000000008152600401611bda90613347565b60405180910390fd5b805181602001fd5b63150b7a0260e01b7bffffffffffffffffffffffffffffffffffffffffffffffffffffffff1916817bffffffffffffffffffffffffffffffffffffffffffffffffffffffff191614915050611c40565b600190505b949350505050565b606060008203611c8f576040518060400160405280600181526020017f30000000000000000000000000000000000000000000000000000000000000008152509050611da3565b600082905060005b60008214611cc1578080611caa906134dc565b915050600a82611cba9190613553565b9150611c97565b60008167ffffffffffffffff811115611cdd57611cdc6124e2565b5b6040519080825280601f01601f191660200182016040528015611d0f5781602001600182028036833780820191505090505b5090505b60008514611d9c57600182611d289190613075565b9150600a85611d379190613584565b6030611d4391906130a9565b60f81b818381518110611d5957611d58612c34565b5b60200101907effffffffffffffffffffffffffffffffffffffffffffffffffffffffffffff1916908160001a905350600a85611d959190613553565b9450611d13565b8093505050505b919050565b505050565b600a80549050600b600083815260200190815260200160002081905550600a81908060018154018082558091505060019003906000526020600020016000909190919091505550565b60006001611e03846109d7565b611e0d9190613075565b9050600060096000848152602001908152602001600020549050818114611ef2576000600860008673ffffffffffffffffffffffffffffffffffffffff1673ffffffffffffffffffffffffffffffffffffffff168152602001908152602001600020600084815260200190815260200160002054905080600860008773ffffffffffffffffffffffffffffffffffffffff1673ffffffffffffffffffffffffffffffffffffffff168152602001908152602001600020600084815260200190815260200160002081905550816009600083815260200190815260200160002081905550505b6009600084815260200190815260200160002060009055600860008573ffffffffffffffffffffffffffffffffffffffff1673ffffffffffffffffffffffffffffffffffffffff16815260200190815260200160002060008381526020019081526020016000206000905550505050565b60006001600a80549050611f779190613075565b90506000600b60008481526020019081526020016000205490506000600a8381548110611fa757611fa6612c34565b5b9060005260206000200154905080600a8381548110611fc957611fc8612c34565b5b906000526020600020018190555081600b600083815260200190815260200160002081905550600b600085815260200190815260200160002060009055600a805480612018576120176135b5565b5b6001900381819060005260206000200160009055905550505050565b600061203f836109d7565b905081600860008573ffffffffffffffffffffffffffffffffffffffff1673ffffffffffffffffffffffffffffffffffffffff168152602001908152602001600020600083815260200190815260200160002081905550806009600084815260200190815260200160002081905550505050565b6000808273ffffffffffffffffffffffffffffffffffffffff163b119050919050565b8280546120e290612897565b90600052602060002090601f016020900481019282612104576000855561214b565b82601f1061211d57805160ff191683800117855561214b565b8280016001018555821561214b579182015b8281111561214a57825182559160200191906001019061212f565b5b509050612158919061215c565b5090565b5b8082111561217557600081600090555060010161215d565b5090565b6000604051905090565b600080fd5b600080fd5b60007fffffffff0000000000000000000000000000000000000000000000000000000082169050919050565b6121c28161218d565b81146121cd57600080fd5b50565b6000813590506121df816121b9565b92915050565b6000602082840312156121fb576121fa612183565b5b6000612209848285016121d0565b91505092915050565b60008115159050919050565b61222781612212565b82525050565b6000602082019050612242600083018461221e565b92915050565b600081519050919050565b600082825260208201905092915050565b60005b83811015612282578082015181840152602081019050612267565b83811115612291576000848401525b50505050565b6000601f19601f8301169050919050565b60006122b382612248565b6122bd8185612253565b93506122cd818560208601612264565b6122d681612297565b840191505092915050565b600060208201905081810360008301526122fb81846122a8565b905092915050565b6000819050919050565b61231681612303565b811461232157600080fd5b50565b6000813590506123338161230d565b92915050565b60006020828403121561234f5761234e612183565b5b600061235d84828501612324565b91505092915050565b600073ffffffffffffffffffffffffffffffffffffffff82169050919050565b600061239182612366565b9050919050565b6123a181612386565b82525050565b60006020820190506123bc6000830184612398565b92915050565b6123cb81612386565b81146123d657600080fd5b50565b6000813590506123e8816123c2565b92915050565b6000806040838503121561240557612404612183565b5b6000612413858286016123d9565b925050602061242485828601612324565b9150509250929050565b61243781612303565b82525050565b6000602082019050612452600083018461242e565b92915050565b60008060006060848603121561247157612470612183565b5b600061247f868287016123d9565b9350506020612490868287016123d9565b92505060406124a186828701612324565b9150509250925092565b6000602082840312156124c1576124c0612183565b5b60006124cf848285016123d9565b91505092915050565b600080fd5b600080fd5b7f4e487b7100000000000000000000000000000000000000000000000000000000600052604160045260246000fd5b61251a82612297565b810181811067ffffffffffffffff82111715612539576125386124e2565b5b80604052505050565b600061254c612179565b90506125588282612511565b919050565b600067ffffffffffffffff821115612578576125776124e2565b5b61258182612297565b9050602081019050919050565b82818337600083830152505050565b60006125b06125ab8461255d565b612542565b9050828152602081018484840111156125cc576125cb6124dd565b5b6125d784828561258e565b509392505050565b600082601f8301126125f4576125f36124d8565b5b813561260484826020860161259d565b91505092915050565b60008060006060848603121561262657612625612183565b5b6000612634868287016123d9565b935050602084013567ffffffffffffffff81111561265557612654612188565b5b612661868287016125df565b925050604084013567ffffffffffffffff81111561268257612681612188565b5b61268e868287016125df565b9150509250925092565b6126a181612212565b81146126ac57600080fd5b50565b6000813590506126be81612698565b92915050565b600080604083850312156126db576126da612183565b5b60006126e9858286016123d9565b92505060206126fa858286016126af565b9150509250929050565b600067ffffffffffffffff82111561271f5761271e6124e2565b5b61272882612297565b9050602081019050919050565b600061274861274384612704565b612542565b905082815260208101848484011115612764576127636124dd565b5b61276f84828561258e565b509392505050565b600082601f83011261278c5761278b6124d8565b5b813561279c848260208601612735565b91505092915050565b600080600080608085870312156127bf576127be612183565b5b60006127cd878288016123d9565b94505060206127de878288016123d9565b93505060406127ef87828801612324565b925050606085013567ffffffffffffffff8111156128105761280f612188565b5b61281c87828801612777565b91505092959194509250565b6000806040838503121561283f5761283e612183565b5b600061284d858286016123d9565b925050602061285e858286016123d9565b9150509250929050565b7f4e487b7100000000000000000000000000000000000000000000000000000000600052602260045260246000fd5b600060028204905060018216806128af57607f821691505b6020821081036128c2576128c1612868565b5b50919050565b7f4552433732313a20617070726f76656420717565727920666f72206e6f6e657860008201527f697374656e7420746f6b656e0000000000000000000000000000000000000000602082015250565b6000612924602c83612253565b915061292f826128c8565b604082019050919050565b6000602082019050818103600083015261295381612917565b9050919050565b7f4552433732313a20617070726f76616c20746f2063757272656e74206f776e6560008201527f7200000000000000000000000000000000000000000000000000000000000000602082015250565b60006129b6602183612253565b91506129c18261295a565b604082019050919050565b600060208201905081810360008301526129e5816129a9565b9050919050565b7f4552433732313a20617070726f76652063616c6c6572206973206e6f74206f7760008201527f6e6572206e6f7220617070726f76656420666f7220616c6c0000000000000000602082015250565b6000612a48603883612253565b9150612a53826129ec565b604082019050919050565b60006020820190508181036000830152612a7781612a3b565b9050919050565b7f4552433732313a207472616e736665722063616c6c6572206973206e6f74206f60008201527f776e6572206e6f7220617070726f766564000000000000000000000000000000602082015250565b6000612ada603183612253565b9150612ae582612a7e565b604082019050919050565b60006020820190508181036000830152612b0981612acd565b9050919050565b7f455243373231456e756d657261626c653a206f776e657220696e646578206f7560008201527f74206f6620626f756e6473000000000000000000000000000000000000000000602082015250565b6000612b6c602b83612253565b9150612b7782612b10565b604082019050919050565b60006020820190508181036000830152612b9b81612b5f565b9050919050565b7f455243373231456e756d657261626c653a20676c6f62616c20696e646578206f60008201527f7574206f6620626f756e64730000000000000000000000000000000000000000602082015250565b6000612bfe602c83612253565b9150612c0982612ba2565b604082019050919050565b60006020820190508181036000830152612c2d81612bf1565b9050919050565b7f4e487b7100000000000000000000000000000000000000000000000000000000600052603260045260246000fd5b7f4552433732313a206f776e657220717565727920666f72206e6f6e657869737460008201527f656e7420746f6b656e0000000000000000000000000000000000000000000000602082015250565b6000612cbf602983612253565b9150612cca82612c63565b604082019050919050565b60006020820190508181036000830152612cee81612cb2565b9050919050565b7f4552433732313a2062616c616e636520717565727920666f7220746865207a6560008201527f726f206164647265737300000000000000000000000000000000000000000000602082015250565b6000612d51602a83612253565b9150612d5c82612cf5565b604082019050919050565b60006020820190508181036000830152612d8081612d44565b9050919050565b600081905092915050565b6000612d9d82612248565b612da78185612d87565b9350612db7818560208601612264565b80840191505092915050565b6000612dcf8284612d92565b915081905092915050565b7f45524337323155524953746f726167653a2055524920717565727920666f722060008201527f6e6f6e6578697374656e7420746f6b656e000000000000000000000000000000602082015250565b6000612e36603183612253565b9150612e4182612dda565b604082019050919050565b60006020820190508181036000830152612e6581612e29565b9050919050565b6000612e788285612d92565b9150612e848284612d92565b91508190509392505050565b7f4552433732313a206f70657261746f7220717565727920666f72206e6f6e657860008201527f697374656e7420746f6b656e0000000000000000000000000000000000000000602082015250565b6000612eec602c83612253565b9150612ef782612e90565b604082019050919050565b60006020820190508181036000830152612f1b81612edf565b9050919050565b7f4552433732313a207472616e736665722066726f6d20696e636f72726563742060008201527f6f776e6572000000000000000000000000000000000000000000000000000000602082015250565b6000612f7e602583612253565b9150612f8982612f22565b604082019050919050565b60006020820190508181036000830152612fad81612f71565b9050919050565b7f4552433732313a207472616e7366657220746f20746865207a65726f2061646460008201527f7265737300000000000000000000000000000000000000000000000000000000602082015250565b6000613010602483612253565b915061301b82612fb4565b604082019050919050565b6000602082019050818103600083015261303f81613003565b9050919050565b7f4e487b7100000000000000000000000000000000000000000000000000000000600052601160045260246000fd5b600061308082612303565b915061308b83612303565b92508282101561309e5761309d613046565b5b828203905092915050565b60006130b482612303565b91506130bf83612303565b9250827fffffffffffffffffffffffffffffffffffffffffffffffffffffffffffffffff038211156130f4576130f3613046565b5b828201905092915050565b7f4552433732313a206d696e7420746f20746865207a65726f2061646472657373600082015250565b6000613135602083612253565b9150613140826130ff565b602082019050919050565b6000602082019050818103600083015261316481613128565b9050919050565b7f4552433732313a20746f6b656e20616c7265616479206d696e74656400000000600082015250565b60006131a1601c83612253565b91506131ac8261316b565b602082019050919050565b600060208201905081810360008301526131d081613194565b9050919050565b7f45524337323155524953746f726167653a2055524920736574206f66206e6f6e60008201527f6578697374656e7420746f6b656e000000000000000000000000000000000000602082015250565b6000613233602e83612253565b915061323e826131d7565b604082019050919050565b6000602082019050818103600083015261326281613226565b9050919050565b7f4552433732313a20617070726f766520746f2063616c6c657200000000000000600082015250565b600061329f601983612253565b91506132aa82613269565b602082019050919050565b600060208201905081810360008301526132ce81613292565b9050919050565b7f4552433732313a207472616e7366657220746f206e6f6e20455243373231526560008201527f63656976657220696d706c656d656e7465720000000000000000000000000000602082015250565b6000613331603283612253565b915061333c826132d5565b604082019050919050565b6000602082019050818103600083015261336081613324565b9050919050565b7f4552433732314d657461646174613a2055524920717565727920666f72206e6f60008201527f6e6578697374656e7420746f6b656e0000000000000000000000000000000000602082015250565b60006133c3602f83612253565b91506133ce82613367565b604082019050919050565b600060208201905081810360008301526133f2816133b6565b9050919050565b600081519050919050565b600082825260208201905092915050565b6000613420826133f9565b61342a8185613404565b935061343a818560208601612264565b61344381612297565b840191505092915050565b60006080820190506134636000830187612398565b6134706020830186612398565b61347d604083018561242e565b818103606083015261348f8184613415565b905095945050505050565b6000815190506134a9816121b9565b92915050565b6000602082840312156134c5576134c4612183565b5b60006134d38482850161349a565b91505092915050565b60006134e782612303565b91507fffffffffffffffffffffffffffffffffffffffffffffffffffffffffffffffff820361351957613518613046565b5b600182019050919050565b7f4e487b7100000000000000000000000000000000000000000000000000000000600052601260045260246000fd5b600061355e82612303565b915061356983612303565b92508261357957613578613524565b5b828204905092915050565b600061358f82612303565b915061359a83612303565b9250826135aa576135a9613524565b5b828206905092915050565b7f4e487b7100000000000000000000000000000000000000000000000000000000600052603160045260246000fdfea26469706673582212207db3c3557418d9a9482ee6e392ec10c75f7470e735fbd3a1151483b2175c776564736f6c634300080d0033",
  "immutableReferences": {},
  "source": "// SPDX-License-Identifier: GPL-3.0\r\npragma solidity ^0.8.0;\r\n\r\n/**\r\n * @title Counters\r\n * @author Matt Condon (@shrugs)\r\n * @dev Provides counters that can only be incremented, decremented or reset. This can be used e.g. to track the number\r\n * of elements in a mapping, issuing ERC721 ids, or counting request ids.\r\n *\r\n * Include with `using Counters for Counters.Counter;`\r\n */\r\nlibrary Counters {\r\n    struct Counter {\r\n        // This variable should never be directly accessed by users of the library: interactions must be restricted to\r\n        // the library's function. As of Solidity v0.5.2, this cannot be enforced, though there is a proposal to add\r\n        // this feature: see https://github.com/ethereum/solidity/issues/4637\r\n        uint256 _value; // default: 0\r\n    }\r\n\r\n    function current(Counter storage counter) internal view returns (uint256) {\r\n        return counter._value;\r\n    }\r\n\r\n    function increment(Counter storage counter) internal {\r\n        unchecked {\r\n            counter._value += 1;\r\n        }\r\n    }\r\n\r\n    function decrement(Counter storage counter) internal {\r\n        uint256 value = counter._value;\r\n        require(value > 0, \"Counter: decrement overflow\");\r\n        unchecked {\r\n            counter._value = value - 1;\r\n        }\r\n    }\r\n\r\n    function reset(Counter storage counter) internal {\r\n        counter._value = 0;\r\n    }\r\n}\r\n\r\npragma solidity ^0.8.0;\r\n\r\nimport \"./ERC721.sol\";\r\n\r\n/**\r\n * @dev ERC721 token with storage based token URI management.\r\n */\r\nabstract contract ERC721URIStorage is ERC721 {\r\n    using Strings for uint256;\r\n\r\n    // Optional mapping for token URIs\r\n    mapping(uint256 => string) private _tokenURIs;\r\n    mapping(uint256 => string) private _metaDatas;\r\n\r\n    /**\r\n     * @dev See {IERC721Metadata-tokenURI}.\r\n     */\r\n    function tokenURI(uint256 tokenId) public view virtual override returns (string memory) {\r\n        require(_exists(tokenId), \"ERC721URIStorage: URI query for nonexistent token\");\r\n\r\n        string memory _tokenURI = _tokenURIs[tokenId];\r\n        string memory base = _baseURI();\r\n\r\n        // If there is no base URI, return the token URI.\r\n        if (bytes(base).length == 0) {\r\n            return _tokenURI;\r\n        }\r\n        // If both are set, concatenate the baseURI and tokenURI (via abi.encodePacked).\r\n        if (bytes(_tokenURI).length > 0) {\r\n            return string(abi.encodePacked(base, _tokenURI));\r\n        }\r\n\r\n        return super.tokenURI(tokenId);\r\n    }\r\n\r\n    function Metadata(uint256 tokenId) public view virtual returns (string memory) {\r\n        require(_exists(tokenId), \"ERC721URIStorage: URI query for nonexistent token\");\r\n        return _metaDatas[tokenId];\r\n    }\r\n\r\n    /**\r\n     * @dev Sets `_tokenURI` as the tokenURI of `tokenId`.\r\n     *\r\n     * Requirements:\r\n     *\r\n     * - `tokenId` must exist.\r\n     */\r\n    function _setTokenURI(uint256 tokenId, string memory _tokenURI) internal virtual {\r\n        require(_exists(tokenId), \"ERC721URIStorage: URI set of nonexistent token\");\r\n        _tokenURIs[tokenId] = _tokenURI;\r\n    }\r\n\r\n    function _setMetaData(uint256 tokenId, string memory _metaData) internal virtual {\r\n        require(_exists(tokenId), \"ERC721URIStorage: URI set of nonexistent token\");\r\n        _metaDatas[tokenId] = _metaData;\r\n    }\r\n\r\n    /**\r\n     * @dev Destroys `tokenId`.\r\n     * The approval is cleared when the token is burned.\r\n     *\r\n     * Requirements:\r\n     *\r\n     * - `tokenId` must exist.\r\n     *\r\n     * Emits a {Transfer} event.\r\n     */\r\n    function _burn(uint256 tokenId) internal virtual override {\r\n        super._burn(tokenId);\r\n\r\n        if (bytes(_tokenURIs[tokenId]).length != 0) {\r\n            delete _tokenURIs[tokenId];\r\n        }\r\n    }\r\n}\r\n\r\n\r\n\r\npragma solidity ^0.8.0;\r\n\r\nimport \"./ERC721.sol\";\r\n//import \"./IERC721Enumerable.sol\";\r\n\r\n/**\r\n * @dev This implements an optional extension of {ERC721} defined in the EIP that adds\r\n * enumerability of all the token ids in the contract as well as all token ids owned by each\r\n * account.\r\n */\r\nabstract contract ERC721Enumerable is ERC721URIStorage {\r\n    // Mapping from owner to list of owned token IDs\r\n    mapping(address => mapping(uint256 => uint256)) private _ownedTokens;\r\n\r\n    // Mapping from token ID to index of the owner tokens list\r\n    mapping(uint256 => uint256) private _ownedTokensIndex;\r\n\r\n    // Array with all token ids, used for enumeration\r\n    uint256[] private _allTokens;\r\n\r\n    // Mapping from token id to position in the allTokens array\r\n    mapping(uint256 => uint256) private _allTokensIndex;\r\n\r\n    // /**\r\n    //  * @dev See {IERC165-supportsInterface}.\r\n    //  */\r\n    // function supportsInterface(bytes4 interfaceId) public view virtual override(IERC165, ERC721) returns (bool) {\r\n    //     return interfaceId == type(IERC721Enumerable).interfaceId || super.supportsInterface(interfaceId);\r\n    // }\r\n\r\n    /**\r\n     * @dev See {IERC721Enumerable-tokenOfOwnerByIndex}.\r\n     */\r\n    function tokenOfOwnerByIndex(address owner, uint256 index) public view virtual override returns (uint256) {\r\n        require(index < ERC721.balanceOf(owner), \"ERC721Enumerable: owner index out of bounds\");\r\n        return _ownedTokens[owner][index];\r\n    }\r\n\r\n    /**\r\n     * @dev See {IERC721Enumerable-totalSupply}.\r\n     */\r\n    function totalSupply() public view virtual override returns (uint256) {\r\n        return _allTokens.length;\r\n    }\r\n\r\n    /**\r\n     * @dev See {IERC721Enumerable-tokenByIndex}.\r\n     */\r\n    function tokenByIndex(uint256 index) public view virtual override returns (uint256) {\r\n        require(index < ERC721Enumerable.totalSupply(), \"ERC721Enumerable: global index out of bounds\");\r\n        return _allTokens[index];\r\n    }\r\n\r\n    /**\r\n     * @dev Hook that is called before any token transfer. This includes minting\r\n     * and burning.\r\n     *\r\n     * Calling conditions:\r\n     *\r\n     * - When `from` and `to` are both non-zero, ``from``'s `tokenId` will be\r\n     * transferred to `to`.\r\n     * - When `from` is zero, `tokenId` will be minted for `to`.\r\n     * - When `to` is zero, ``from``'s `tokenId` will be burned.\r\n     * - `from` cannot be the zero address.\r\n     * - `to` cannot be the zero address.\r\n     *\r\n     * To learn more about hooks, head to xref:ROOT:extending-contracts.adoc#using-hooks[Using Hooks].\r\n     */\r\n    function _beforeTokenTransfer(\r\n        address from,\r\n        address to,\r\n        uint256 tokenId\r\n    ) internal virtual override {\r\n        super._beforeTokenTransfer(from, to, tokenId);\r\n\r\n        if (from == address(0)) {\r\n            _addTokenToAllTokensEnumeration(tokenId);\r\n        } else if (from != to) {\r\n            _removeTokenFromOwnerEnumeration(from, tokenId);\r\n        }\r\n        if (to == address(0)) {\r\n            _removeTokenFromAllTokensEnumeration(tokenId);\r\n        } else if (to != from) {\r\n            _addTokenToOwnerEnumeration(to, tokenId);\r\n        }\r\n    }\r\n\r\n    /**\r\n     * @dev Private function to add a token to this extension's ownership-tracking data structures.\r\n     * @param to address representing the new owner of the given token ID\r\n     * @param tokenId uint256 ID of the token to be added to the tokens list of the given address\r\n     */\r\n    function _addTokenToOwnerEnumeration(address to, uint256 tokenId) private {\r\n        uint256 length = ERC721.balanceOf(to);\r\n        _ownedTokens[to][length] = tokenId;\r\n        _ownedTokensIndex[tokenId] = length;\r\n    }\r\n\r\n    /**\r\n     * @dev Private function to add a token to this extension's token tracking data structures.\r\n     * @param tokenId uint256 ID of the token to be added to the tokens list\r\n     */\r\n    function _addTokenToAllTokensEnumeration(uint256 tokenId) private {\r\n        _allTokensIndex[tokenId] = _allTokens.length;\r\n        _allTokens.push(tokenId);\r\n    }\r\n\r\n    /**\r\n     * @dev Private function to remove a token from this extension's ownership-tracking data structures. Note that\r\n     * while the token is not assigned a new owner, the `_ownedTokensIndex` mapping is _not_ updated: this allows for\r\n     * gas optimizations e.g. when performing a transfer operation (avoiding double writes).\r\n     * This has O(1) time complexity, but alters the order of the _ownedTokens array.\r\n     * @param from address representing the previous owner of the given token ID\r\n     * @param tokenId uint256 ID of the token to be removed from the tokens list of the given address\r\n     */\r\n    function _removeTokenFromOwnerEnumeration(address from, uint256 tokenId) private {\r\n        // To prevent a gap in from's tokens array, we store the last token in the index of the token to delete, and\r\n        // then delete the last slot (swap and pop).\r\n\r\n        uint256 lastTokenIndex = ERC721.balanceOf(from) - 1;\r\n        uint256 tokenIndex = _ownedTokensIndex[tokenId];\r\n\r\n        // When the token to delete is the last token, the swap operation is unnecessary\r\n        if (tokenIndex != lastTokenIndex) {\r\n            uint256 lastTokenId = _ownedTokens[from][lastTokenIndex];\r\n\r\n            _ownedTokens[from][tokenIndex] = lastTokenId; // Move the last token to the slot of the to-delete token\r\n            _ownedTokensIndex[lastTokenId] = tokenIndex; // Update the moved token's index\r\n        }\r\n\r\n        // This also deletes the contents at the last position of the array\r\n        delete _ownedTokensIndex[tokenId];\r\n        delete _ownedTokens[from][lastTokenIndex];\r\n    }\r\n\r\n    /**\r\n     * @dev Private function to remove a token from this extension's token tracking data structures.\r\n     * This has O(1) time complexity, but alters the order of the _allTokens array.\r\n     * @param tokenId uint256 ID of the token to be removed from the tokens list\r\n     */\r\n    function _removeTokenFromAllTokensEnumeration(uint256 tokenId) private {\r\n        // To prevent a gap in the tokens array, we store the last token in the index of the token to delete, and\r\n        // then delete the last slot (swap and pop).\r\n\r\n        uint256 lastTokenIndex = _allTokens.length - 1;\r\n        uint256 tokenIndex = _allTokensIndex[tokenId];\r\n\r\n        // When the token to delete is the last token, the swap operation is unnecessary. However, since this occurs so\r\n        // rarely (when the last minted token is burnt) that we still do the swap here to avoid the gas cost of adding\r\n        // an 'if' statement (like in _removeTokenFromOwnerEnumeration)\r\n        uint256 lastTokenId = _allTokens[lastTokenIndex];\r\n\r\n        _allTokens[tokenIndex] = lastTokenId; // Move the last token to the slot of the to-delete token\r\n        _allTokensIndex[lastTokenId] = tokenIndex; // Update the moved token's index\r\n\r\n        // This also deletes the contents at the last position of the array\r\n        delete _allTokensIndex[tokenId];\r\n        _allTokens.pop();\r\n    }\r\n}\r\n\r\n\r\npragma solidity ^0.8.0;\r\nimport \"./ERC721.sol\";\r\n\r\ncontract MsgCoin is ERC721Enumerable {\r\n    using Counters for Counters.Counter;\r\n    Counters.Counter private _tokenIds;\r\n    //uint256 private _tokenIds;\r\n    mapping(string => uint8) hashes;\r\n    mapping(uint256 => uint) timeOfTokenId;\r\n\r\n    constructor() ERC721(\"UniqueAsset\", \"UNA\") {}\r\n\r\n    function awardItem(address recipient, string memory hash, string memory metadata)\r\n    external\r\n    returns (uint256){\r\n        require(hashes[hash] != 1);\r\n        hashes[hash] = 1;\r\n        uint256 newItemId = uint256(keccak256(abi.encodePacked(hash)));//abi.encodePacked(...) returns (bytes)\r\n        //require(ownerOf(newItemId) == address(0));\r\n        _tokenIds.increment();\r\n        //uint256 newItemId = _tokenIds.current();\r\n        _mint(recipient, newItemId);\r\n        _setTokenURI(newItemId, hash);\r\n        _setMetaData(newItemId, metadata);\r\n        _setTimeOfTokenId(newItemId);\r\n        return newItemId;\r\n    }\r\n    \r\n    // function isHash (string memory hash) public view returns (bool) {\r\n    //     if(hashes[hash] != 1)\r\n    //         return false;\r\n    //     else\r\n    //         return true;\r\n    // }\r\n\r\n    function getTokenIds () external view returns (uint256) {\r\n        return _tokenIds.current();\r\n    }\r\n\r\n    function _setTimeOfTokenId (uint256 _tokenId) private {\r\n        timeOfTokenId[_tokenId] = block.timestamp;\r\n    }\r\n\r\n    function getTimeOfTokenId (uint256 _tokenId) public view returns (uint) {\r\n        return timeOfTokenId[_tokenId];\r\n    }\r\n\r\n}",
  "sourcePath": "D:\\Users\\HuangHao\\Desktop\\truffle-react\\contracts\\MsgCoin.sol",
  "compiler": {
    "name": "solc",
    "version": "0.8.13+commit.abaa5c0e.Emscripten.clang"
  },
  "schemaVersion": "3.4.3",
  "updatedAt": "2022-05-02T12:48:04.892Z",
  "networkType": "ethereum",
  "devdoc": {
    "kind": "dev",
    "methods": {
      "approve(address,uint256)": {
        "details": "See {IERC721-approve}."
      },
      "balanceOf(address)": {
        "details": "See {IERC721-balanceOf}."
      },
      "getApproved(uint256)": {
        "details": "See {IERC721-getApproved}."
      },
      "isApprovedForAll(address,address)": {
        "details": "See {IERC721-isApprovedForAll}."
      },
      "name()": {
        "details": "See {IERC721Metadata-name}."
      },
      "ownerOf(uint256)": {
        "details": "See {IERC721-ownerOf}."
      },
      "safeTransferFrom(address,address,uint256)": {
        "details": "See {IERC721-safeTransferFrom}."
      },
      "safeTransferFrom(address,address,uint256,bytes)": {
        "details": "See {IERC721-safeTransferFrom}."
      },
      "setApprovalForAll(address,bool)": {
        "details": "See {IERC721-setApprovalForAll}."
      },
      "supportsInterface(bytes4)": {
        "details": "See {IERC165-supportsInterface}."
      },
      "symbol()": {
        "details": "See {IERC721Metadata-symbol}."
      },
      "tokenByIndex(uint256)": {
        "details": "See {IERC721Enumerable-tokenByIndex}."
      },
      "tokenOfOwnerByIndex(address,uint256)": {
        "details": "See {IERC721Enumerable-tokenOfOwnerByIndex}."
      },
      "tokenURI(uint256)": {
        "details": "See {IERC721Metadata-tokenURI}."
      },
      "totalSupply()": {
        "details": "See {IERC721Enumerable-totalSupply}."
      },
      "transferFrom(address,address,uint256)": {
        "details": "See {IERC721-transferFrom}."
      }
    },
    "version": 1
  },
  "userdoc": {
    "kind": "user",
    "methods": {},
    "version": 1
  }
}